:020000040800F2
:10000000003000204D3A0008DD380008EB380008C9
:10001000F1380008F7380008FD380008000000003B
:10002000000000000000000000000000033900088C
:1000300011390008000000001F3900082D390008A0
:100040009D3A00089D3A00089D3A00089D3A000834
:100050009D3A00089D3A00089D3A00089D3A000824
:100060009D3A00089D3A00089D3A00089D3A000814
:100070009D3A00089D3A00089D3A00089D3A000804
:100080009D3A00089D3A00089D3A00089D3A0008F4
:100090009D3A00089D3A00089D3A00089D3A0008E4
:1000A0009D3A00089D3A00089D3A00089D3A0008D4
:1000B0009D3A00089D3A0008000000009D3A0008A3
:1000C0009D3A000800000000000000009D3A000872
:1000D000000000009D3A00089D3A00089D3A000883
:1000E0009D3A00089D3A0008000000000000000052
:1000F0000000000000000000000000000000000000
:1001000000000000000000000000000000000000EF
:1001100000000000000000009D3A00089D3A000821
:1001200000000000000000000000000000000000CF
:1001300000000000000000000000000000000000BF
:100140009D3A00089D3A00080000000000000000F1
:10015000000000000000000000000000000000009F
:10016000000000000000000000000000000000008F
:10017000000000000000000000000000000000007F
:08018000000000009D3A000898
:1001900010B5054C237833B9044B13B10448AFF3C1
:1001A00000800123237010BD7000002000000000BB
:1001B000D04B000808B5034B1BB103490348AFF30C
:1001C000008008BD0000000074000020D04B000833
:1001D000034613F8012B002AFBD1181A0138704787
:1001E00001F0FF01102A2BDB10F0070F08D010F8E8
:1001F000013B013A8B422DD010F0070F42B3F6D1EC
:10020000F0B441EA012141EA014122F007047FF004
:1002100000070023F0E80256083C85EA010586EA5B
:10022000010685FA47F5A3FA87F586FA47F6A5FA97
:1002300087F68EB9EED1F0BC01F0FF0102F00702A3
:1002400032B110F8013B013A83EA010313B1F8D14E
:100250000020704701387047002D06BF354603382F
:10026000073815F0010F07D1013015F4807F02BF68
:10027000013015F4C03F0130F0BC0138704700BFB9
:1002800080B500AF084B1B68074A43F010031360AA
:10029000032000F00DF9002000F008F803F00EFA3A
:1002A0000023184680BD00BF0020024080B582B008
:1002B00000AF7860124B1A68124B1B7819464FF446
:1002C0007A73B3FBF1F3B2FBF3F3184600F017F9BE
:1002D0000346002B01D001230EE07B680F2B0AD8C8
:1002E000002279684FF0FF3000F0EDF8064A7B6895
:1002F0001360002300E0012318460837BD4680BD87
:1003000008000020040000200000002080B400AF9E
:10031000064B1B781A46064B1B681344044A1360AD
:1003200000BFBD465DF8047B704700BF040000209D
:100330009C00002080B400AF034B1B681846BD46EC
:100340005DF8047B704700BF9C00002080B485B03E
:1003500000AF78607B6803F00703FB600C4BDB6841
:10036000BB60BA684FF6FF031340BB60FB681A021C
:10037000BB68134343F0BF6343F40033BB60044ADC
:10038000BB68D36000BF1437BD465DF8047B70477F
:1003900000ED00E080B400AF044BDB681B0A03F003
:1003A00007031846BD465DF8047B704700ED00E08A
:1003B00080B483B000AF03463960FB7197F9073012
:1003C000002B0BDA3B68DAB20C49FB7903F00F0320
:1003D000043B1201D2B20B441A7609E03B68DAB250
:1003E000074997F907301201D2B20B4483F8002372
:1003F00000BF0C37BD465DF8047B704700ED00E0A0
:1004000000E100E080B489B000AFF860B9607A60C4
:10041000FB6803F00703FB61FB69C3F10703042BCF
:1004200028BF0423BB61FB690433062B02D9FB6997
:10043000033B00E000237B614FF0FF32BB6902FA0F
:1004400003F3DA43BB681A407B699A404FF0FF31EF
:100450007B6901FA03F3D9437B680B4013431846C9
:100460002437BD465DF8047B7047000080B582B03C
:1004700000AF78607B68013BB3F1807F01D301233B
:100480000FE00A4A7B68013B53600F214FF0FF30B9
:10049000FFF78EFF054B00229A60044B07221A607B
:1004A000002318460837BD4680BD00BF10E000E0BD
:1004B00080B582B000AF78607868FFF747FF00BF73
:1004C0000837BD4680BD80B586B000AF0346B96031
:1004D0007A60FB7300237B61FFF75CFF78617A68C9
:1004E000B9687869FFF78EFF024697F90F30114619
:1004F0001846FFF75DFF00BF1837BD4680BD80B5C9
:1005000082B000AF78607868FFF7B0FF0346184606
:100510000837BD4680BD000080B487B000AF78606A
:10052000396000237B610023FB6000233B614EE1C7
:100530003B681A6801217B6901FA03F31340FB60F1
:10054000FB68002B00F040813B685B68022B03D006
:100550003B685B68122B23D17B69DA087B68083221
:1005600053F822303B617B6903F007039B000F22A5
:1005700002FA03F3DB433A6913403B613B681A69B3
:100580007B6903F007039B0002FA03F33A69134304
:100590003B617B69DA087B680832396943F82210CD
:1005A0007B681B683B617B695B00032202FA03F3F3
:1005B000DB433A6913403B613B685B6803F003022D
:1005C0007B695B0002FA03F33A6913433B617B6882
:1005D0003A691A603B685B68012B0BD03B685B682B
:1005E000022B07D03B685B68112B03D03B685B682C
:1005F000122B30D17B689B683B617B695B000322D7
:1006000002FA03F3DB433A6913403B613B68DA6863
:100610007B695B0002FA03F33A6913433B617B6831
:100620003A699A607B685B683B6101227B6902FAE8
:1006300003F3DB433A6913403B613B685B681B098A
:1006400003F001027B6902FA03F33A6913433B6149
:100650007B683A695A607B68DB683B617B695B0059
:10066000032202FA03F3DB433A6913403B613B6820
:100670009A687B695B0002FA03F33A6913433B61B2
:100680007B683A69DA603B685B6803F08053002B53
:1006900000F09A80554B9B69544A43F001039361E3
:1006A000524B9B6903F00103BB60BB68504A7B69F6
:1006B0009B08023352F823303B617B6903F003034C
:1006C0009B000F2202FA03F3DB433A6913403B61BC
:1006D0007B68B3F1904F13D07B68464A93420DD0AC
:1006E0007B68454A934207D07B68444A934201D1D4
:1006F000032306E0052304E0022302E0012300E0D7
:1007000000237A6902F00302920093403A6913438E
:100710003B6137497B699B0802333A6941F82320E2
:10072000374B1B683B61FB68DB433A6913403B6115
:100730003B685B6803F48033002B03D03A69FB68A5
:1007400013433B612E4A3B6913602D4B5B683B6151
:10075000FB68DB433A6913403B613B685B6803F429
:100760000033002B03D03A69FB6813433B61244AF2
:100770003B695360224B9B683B61FB68DB433A69F2
:1007800013403B613B685B6803F48013002B03D08C
:100790003A69FB6813433B61194A3B699360184B04
:1007A000DB683B61FB68DB433A6913403B613B68B4
:1007B0005B6803F40013002B03D03A69FB68134312
:1007C0003B610F4A3B69D3607B6901337B613B68C6
:1007D0001A687B6922FA03F3002B7FF4A9AE00BFED
:1007E0001C37BD465DF8047B704700BF0010024017
:1007F000000001400004004800080048000C0048C8
:100800000004014080B483B000AF78600B467B8069
:1008100013467B707B78002B03D07A887B689A61C3
:1008200002E07A887B689A6200BF0C37BD465DF8AB
:10083000047B704780B582B000AF78607B68002B86
:1008400001D1012381E07B6893F84130DBB2002BBA
:1008500006D17B68002283F84020786802F052FFBE
:100860007B68242283F841207B681B681A687B68B8
:100870001B6822F001021A607B685A687B681B685B
:1008800022F070621A617B681B689A687B681B683B
:1008900022F400429A607B68DB68012B07D17B68F9
:1008A0009A687B681B6842F400429A6006E07B68A5
:1008B0009A687B681B6842F404429A607B68DB6834
:1008C000022B04D17B681B684FF400625A607B687E
:1008D0001B685B687A68126843F0007343F4004356
:1008E00053607B681B68DA687B681B6822F40042EF
:1008F000DA607B681A697B685B6942EA03017B689E
:100900009B691A027B681B680A43DA607B68D969B5
:100910007B681A6A7B681B680A431A607B681B68DD
:100920001A687B681B6842F001021A607B6800222B
:100930005A647B68202283F841207B6800221A6376
:100940007B68002283F84220002318460837BD4602
:1009500080BD80B483B000AF786039607B6893F865
:100960004130DBB2202B38D17B6893F84030012B2B
:1009700001D1022332E07B68012283F840207B68AA
:10098000242283F841207B681B681A687B681B68F7
:1009900022F001021A607B681B681A687B681B687A
:1009A00022F480521A607B681B6819687B681B6898
:1009B0003A680A431A607B681B681A687B681B6880
:1009C00042F001021A607B68202283F841207B6894
:1009D000002283F84020002300E0022318460C3751
:1009E000BD465DF8047B704780B485B000AF786089
:1009F00039600023FB607B6893F84130DBB2202B29
:100A000039D17B6893F84030012B01D1022333E0C8
:100A10007B68012283F840207B68242283F84120F0
:100A20007B681B681A687B681B6822F001021A60E9
:100A30007B681B681B68FB60FB6823F47063FB60CA
:100A40003B681B02FA681343FB607B681B68FA680B
:100A50001A607B681B681A687B681B6842F0010299
:100A60001A607B68202283F841207B68002283F88B
:100A70004020002300E0022318461437BD465DF8ED
:100A8000047B704780B5ADF5007D00AF3B1D18605D
:100A90003B1D1B68002B02D1012300F0DABE3B1D79
:100AA0001B681B6803F00103002B00F06E81B54B3F
:100AB0005B6803F00C03042B0CD0B24B5B6803F0B3
:100AC0000C03082B5AD1AF4B5B6803F48033B3F5AA
:100AD000803F53D14FF40033C7F8F431D7F8F431E5
:100AE00093FAA3F3C7F8F031D7F8F031B3FA83F3F0
:100AF000DBB25B09DBB243F00103DBB2012B02D1B5
:100B0000A04B1B6815E04FF40033C7F8EC31D7F861
:100B1000EC3193FAA3F3C7F8E8314FF40033C7F888
:100B2000E431D7F8E43193FAA3F3C7F8E031954BF9
:100B30005B6A4FF40032C7F8DC21D7F8DC2192FA67
:100B4000A2F2C7F8D821D7F8D821B2FA82F252B26D
:100B500042F0200252B2D2B202F01F02012101FA89
:100B600002F21340002B00F00F813B1D1B685B68F5
:100B7000002B40F00981012300F06BBE3B1D1B6878
:100B80005B68B3F5803F06D17E4B1B687D4A43F41A
:100B90008033136030E03B1D1B685B68002B0CD179
:100BA000784B1B68774A23F480331360754B1B68BE
:100BB000744A23F4802313601EE03B1D1B685B68AE
:100BC000B3F5A02F0CD16F4B1B686E4A43F4802302
:100BD00013606C4B1B686B4A43F4803313600BE06B
:100BE000684B1B68674A23F480331360654B1B68AE
:100BF000644A23F480231360624BDB6A23F00F0204
:100C00003B1D1B689B685F491343CB623B1D1B6800
:100C10005B68002B5AD0FFF78DFBC7F8F8010AE09C
:100C2000FFF788FB0246D7F8F831D31A642B02D9B4
:100C3000032300F00EBE4FF40033C7F8D431D7F8C9
:100C4000D43193FAA3F3C7F8D031D7F8D031B3FA3F
:100C500083F3DBB25B09DBB243F00103DBB2012BB0
:100C600002D1484B1B6815E04FF40033C7F8CC3174
:100C7000D7F8CC3193FAA3F3C7F8C8314FF4003357
:100C8000C7F8C431D7F8C43193FAA3F3C7F8C03119
:100C90003C4B5B6A4FF40032C7F8BC21D7F8BC214B
:100CA00092FAA2F2C7F8B821D7F8B821B2FA82F2C4
:100CB00052B242F0200252B2D2B202F01F0201211F
:100CC00001FA02F21340002BAAD05EE0FFF732FBDC
:100CD000C7F8F8010AE0FFF72DFB0246D7F8F83114
:100CE000D31A642B02D9032300F0B3BD4FF40033B1
:100CF000C7F8B431D7F8B43193FAA3F3C7F8B031D9
:100D0000D7F8B031B3FA83F3DBB25B09DBB243F05F
:100D10000103DBB2012B02D11A4B1B6815E04FF423
:100D20000033C7F8AC31D7F8AC3193FAA3F3C7F866
:100D3000A8314FF40033C7F8A431D7F8A43193FA9F
:100D4000A3F3C7F8A0310F4B5B6A4FF40032C7F82A
:100D50009C21D7F89C2192FAA2F2C7F89821D7F8E3
:100D60009821B2FA82F252B242F0200252B2D2B2CA
:100D700002F01F02012101FA02F21340002BAAD156
:100D800003E000BF0010024000BF3B1D1B681B6852
:100D900003F00203002B00F07081D04B5B6803F07E
:100DA0000C03002B0BD0CD4B5B6803F00C03082B1E
:100DB0006DD1CA4B5B6803F48033002B67D10223EB
:100DC000C7F89431D7F8943193FAA3F3C7F8903168
:100DD000D7F89031B3FA83F3DBB25B09DBB243F0AF
:100DE0000103DBB2012B02D1BC4B1B6813E00223D1
:100DF000C7F88C31D7F88C3193FAA3F3C7F8883150
:100E00000223C7F88431D7F8843193FAA3F3C7F8E3
:100E10008031B24B5B6A0222C7F87C21D7F87C2173
:100E200092FAA2F2C7F87821D7F87821B2FA82F2C2
:100E300052B242F0200252B2D2B202F01F0201219D
:100E400001FA02F21340002B07D03B1D1B681B69FF
:100E5000012B02D0012300F0FCBCA04B1B6823F047
:100E6000F8023B1D1B685969F823C7F87431D7F89D
:100E7000743193FAA3F3C7F87031D7F87031B3FA2D
:100E800083F301FA03F3954913430B60F5E03B1D2F
:100E90001B681B69002B00F085800123C7F86C31AB
:100EA000D7F86C3193FAA3F3C7F86831D7F86831F3
:100EB000B3FA83F303F1845303F584139B001A46BA
:100EC00001231360FFF736FAC7F8F8010AE0FFF7CD
:100ED00031FA0246D7F8F831D31A022B02D903238C
:100EE00000F0B7BC0223C7F86431D7F8643193FA35
:100EF000A3F3C7F86031D7F86031B3FA83F3DBB2FC
:100F00005B09DBB243F00103DBB2012B02D1734B6F
:100F10001B6813E00223C7F85C31D7F85C3193FA01
:100F2000A3F3C7F858310223C7F85431D7F8543126
:100F300093FAA3F3C7F85031684B5B6A0222C7F8F3
:100F40004C21D7F84C2192FAA2F2C7F84821D7F8E1
:100F50004821B2FA82F252B242F0200252B2D2B228
:100F600002F01F02012101FA02F21340002BAED061
:100F70005A4B1B6823F0F8023B1D1B685969F82384
:100F8000C7F84431D7F8443193FAA3F3C7F8403196
:100F9000D7F84031B3FA83F301FA03F34F4913430F
:100FA0000B606AE00123C7F83C31D7F83C3193FA73
:100FB000A3F3C7F83831D7F83831B3FA83F303F124
:100FC000845303F584139B001A4600231360FFF734
:100FD000B1F9C7F8F8010AE0FFF7ACF90246D7F813
:100FE000F831D31A022B02D9032300F032BC0223BA
:100FF000C7F83431D7F8343193FAA3F3C7F8303156
:10100000D7F83031B3FA83F3DBB25B09DBB243F0DC
:101010000103DBB2012B02D1304B1B6813E002232A
:10102000C7F82C31D7F82C3193FAA3F3C7F828313D
:101030000223C7F82431D7F8243193FAA3F3C7F871
:101040002031264B5B6A0222C7F81C21D7F81C21ED
:1010500092FAA2F2C7F81821D7F81821B2FA82F250
:1010600052B242F0200252B2D2B202F01F0201216B
:1010700001FA02F21340002BAED13B1D1B681B6826
:1010800003F00803002B00F0D8803B1D1B689B6910
:10109000002B67D00123C7F81431D7F8143193FA25
:1010A000A3F3C7F81031D7F81031B3FA83F31A4617
:1010B0000B4B13449B001A4601231360FFF73AF9C8
:1010C000C7F8F8010EE0FFF735F90246D7F8F83116
:1010D000D31A022B06D90323BBE300BF0010024042
:1010E000208190100223C7F80C31D7F80C3193FA05
:1010F000A3F3C7F808310223C7F80431D7F8043145
:1011000093FAA3F207F580731A6007F1FC03022239
:101110001A6007F1FC031B6893FAA3F207F1F803C6
:101120001A60A54B5A6A07F1F4030221196007F10E
:10113000F4031B6893FAA3F107F1F003196007F1B8
:10114000F0031B68B3FA83F35BB243F060035BB256
:10115000DBB203F01F03012101FA03F31340002B5C
:10116000B1D06AE007F1EC0301221A6007F1EC0349
:101170001B6893FAA3F207F1E8031A6007F1E8038A
:101180001B68B3FA83F31A468C4B13449B001A4630
:1011900000231360FFF7CEF8C7F8F80109E0FFF766
:1011A000C9F80246D7F8F831D31A022B01D9032324
:1011B0004FE307F1E40302221A6007F1E4031B681E
:1011C00093FAA3F207F1E0031A6007F1DC030222AD
:1011D0001A6007F1DC031B6893FAA3F207F1D80346
:1011E0001A6007F1D40302221A6007F1D4031B68C6
:1011F00093FAA3F207F1D0031A606F4B5A6A07F112
:10120000CC030221196007F1CC031B6893FAA3F108
:1012100007F1C803196007F1C8031B68B3FA83F329
:101220005BB243F060035BB2DBB203F01F0301214A
:1012300001FA03F31340002BB1D13B1D1B681B685F
:1012400003F00403002B00F05981002387F8FF31DD
:10125000594BDB6903F08053002B12D1564BDB69ED
:10126000554A43F08053D361534BDB6903F08052FE
:1012700007F10C031A6007F10C031B68012387F8C0
:10128000FF314F4B1B6803F48073002B1AD14C4B7A
:101290001B684B4A43F480731360FFF74BF8C7F8A1
:1012A000F80109E0FFF746F80246D7F8F831D31AFB
:1012B000642B01D90323CCE2414B1B6803F48073F8
:1012C000002BEFD03B1D1B68DB68012B06D13A4B8E
:1012D0001B6A394A43F0010313622FE03B1D1B6870
:1012E000DB68002B0CD1344B1B6A334A23F001031B
:1012F0001362314B1B6A304A23F0040313621DE072
:101300003B1D1B68DB68052B0CD12B4B1B6A2A4A43
:1013100043F004031362284B1B6A274A43F001037E
:1013200013620BE0244B1B6A234A23F00103136270
:10133000214B1B6A204A23F0040313623B1D1B68E8
:10134000DB68002B6BD0FEF7F5FFC7F8F8010BE068
:10135000FEF7F0FF0246D7F8F831D31A41F288328F
:10136000934201D9032374E207F1C40302221A60F5
:1013700007F1C4031B6893FAA3F207F1C0031A60D4
:1013800007F1BC0302221A6007F1BC031B6893FA41
:10139000A3F207F1B8031A6007F1B8031B68B3FAA8
:1013A00083F3DBB25B09DBB243F00203DBB2022B57
:1013B00008D1014B1B6A13E00010024020819010FD
:1013C0000070004007F1B40302221A6007F1B40371
:1013D0001B6893FAA3F207F1B0031A60BB4B5B6A78
:1013E00007F1AC020221116007F1AC02126892FA17
:1013F000A2F107F1A802116007F1A8021268B2FA7F
:1014000082F252B242F0400252B2D2B202F01F0255
:10141000012101FA02F21340002B99D064E0FEF79B
:1014200089FFC7F8F8010BE0FEF784FF0246D7F802
:10143000F831D31A41F28832934201D9032308E2EA
:1014400007F1A40302221A6007F1A4031B6893FAB0
:10145000A3F207F1A0031A6007F19C0302221A60AD
:1014600007F19C031B6893FAA3F207F198031A6033
:1014700007F198031B68B3FA83F3DBB25B09DBB2B5
:1014800043F00203DBB2022B02D1904B1B6A0DE04A
:1014900007F1940302221A6007F194031B6893FA80
:1014A000A3F207F190031A60884B5B6A07F18C0284
:1014B0000221116007F18C02126892FAA2F107F181
:1014C0008802116007F188021268B2FA82F252B201
:1014D00042F0400252B2D2B202F01F02012101FAE0
:1014E00002F21340002B9FD197F8FF31012B05D159
:1014F000764BDB69754A23F08053D3613B1D1B6833
:10150000DB69002B00F0A481704B5B6803F00C03D7
:10151000082B00F09B813B1D1B68DB69022B40F010
:10152000138107F184034FF080721A6007F184037E
:101530001B6893FAA3F207F180031A6007F1800396
:101540001B68B3FA83F303F1845303F584139B0000
:101550001A4600231360FEF7EDFEC7F8F80109E014
:10156000FEF7E8FE0246D7F8F831D31A022B01D96C
:1015700003236EE107F17C034FF000721A6007F15C
:101580007C031B6893FAA3F207F178031A6007F152
:1015900078031B68B3FA83F3DBB25B09DBB243F079
:1015A0000103DBB2012B02D1484B1B681BE007F1A2
:1015B00074034FF000721A6007F174031B6893FA0A
:1015C000A3F207F170031A6007F16C034FF0007289
:1015D0001A6007F16C031B6893FAA3F207F1680322
:1015E0001A603A4B5B6A07F164024FF000711160B8
:1015F00007F16402126892FAA2F107F16002116029
:1016000007F160021268B2FA82F252B242F020028E
:1016100052B2D2B202F01F02012101FA02F21340CB
:10162000002B9DD1294B5B6823F474123B1D1B6872
:10163000596A3B1D1B681B6A0B43244913434B60CB
:1016400007F15C034FF080721A6007F15C031B68BE
:1016500093FAA3F207F158031A6007F158031B68C5
:10166000B3FA83F303F1845303F584139B001A4602
:1016700001231360FEF75EFEC7F8F80109E0FEF7EC
:1016800059FE0246D7F8F831D31A022B01D90323A9
:10169000DFE007F154034FF000721A6007F15403C2
:1016A0001B6893FAA3F207F150031A6007F1500385
:1016B0001B68B3FA83F3DBB25B09DBB243F00103CF
:1016C000DBB2012B04D1014B1B681DE0001002406E
:1016D00007F14C034FF000721A6007F14C031B68CE
:1016E00093FAA3F207F148031A6007F144034FF09D
:1016F00000721A6007F144031B6893FAA3F207F122
:1017000040031A60554B5B6A07F13C024FF00071D1
:10171000116007F13C02126892FAA2F107F1380257
:10172000116007F138021268B2FA82F252B242F046
:10173000200252B2D2B202F01F02012101FA02F2DB
:101740001340002B9BD083E007F134034FF08072ED
:101750001A6007F134031B6893FAA3F207F1300310
:101760001A6007F130031B68B3FA83F303F1845363
:1017700003F584139B001A4600231360FEF7DAFD7D
:10178000C7F8F80109E0FEF7D5FD0246D7F8F831B1
:10179000D31A022B01D903235BE007F12C034FF08E
:1017A00000721A6007F12C031B6893FAA3F207F189
:1017B00028031A6007F128031B68B3FA83F3DBB22E
:1017C0005B09DBB243F00103DBB2012B02D1234BF7
:1017D0001B681BE007F124034FF000721A6007F149
:1017E00024031B6893FAA3F207F120031A6007F1A0
:1017F0001C034FF000721A6007F11C031B6893FA78
:10180000A3F207F118031A60144B5B6A07F1140284
:101810004FF00071116007F11402126892FAA2F100
:1018200007F11002116007F110021268B2FA82F299
:1018300052B242F0200252B2D2B202F01F02012193
:1018400001FA02F21340002B9DD101E0012300E0D8
:101850000023184607F50077BD4680BD0010024002
:1018600080B59EB000AF7860396000237B677B68ED
:10187000002B01D1012364E1924B1B6803F00703A5
:101880003A689A4210D98F4B1B6823F007028D49A2
:101890003B6813430B608B4B1B6803F007033A68EC
:1018A0009A4201D001234CE17B681B6803F00203DC
:1018B000002B08D0844B5B6823F0F0027B689B68A8
:1018C000814913434B607B681B6803F00103002BC5
:1018D00000F0DF807B685B68012B3DD14FF4003363
:1018E0003B673B6F93FAA3F3FB66FB6EB3FA83F39C
:1018F000DBB25B09DBB243F00103DBB2012B02D1A7
:10190000714B1B680FE04FF40033BB66BB6E93FA5C
:10191000A3F37B664FF400333B663B6E93FAA3F36D
:10192000FB65694B5B6A4FF40032BA65BA6D92FA97
:10193000A2F27A657A6DB2FA82F252B242F02002D5
:1019400052B2D2B202F01F02012101FA02F2134098
:10195000002B7DD10123F4E07B685B68022B3DD135
:101960004FF000733B653B6D93FAA3F3FB64FB6C94
:10197000B3FA83F3DBB25B09DBB243F00103DBB202
:10198000012B02D1504B1B680FE04FF00073BB647A
:10199000BB6C93FAA3F37B644FF000733B643B6C26
:1019A00093FAA3F3FB63484B5B6A4FF00072BA6390
:1019B000BA6B92FAA2F27A637A6BB2FA82F252B2FC
:1019C00042F0200252B2D2B202F01F02012101FA0B
:1019D00002F21340002B3BD10123B2E002233B6310
:1019E0003B6B93FAA3F3FB62FB6AB3FA83F3DBB2BC
:1019F0005B09DBB243F00103DBB2012B02D1324BB6
:101A00001B680DE00223BB62BB6A93FAA3F37B62FF
:101A100002233B623B6A93FAA3F3FB612A4B5B6AA6
:101A20000222BA61BA6992FAA2F27A617A69B2FACA
:101A300082F252B242F0200252B2D2B202F01F023F
:101A4000012101FA02F21340002B01D1012378E0B9
:101A50001D4B5B6823F003027B685B681A491343E4
:101A60004B60FEF767FC78670AE0FEF763FC02460E
:101A70007B6FD31A41F28832934201D9032360E08D
:101A8000114B5B6803F00C027B685B689B009A4219
:101A9000EBD10C4B1B6803F007033A689A4215D24E
:101AA000084B1B6823F0070206493B6813430B6091
:101AB000044B1B6803F007033A689A4206D00123DF
:101AC0003FE000BF00200240001002407B681B681E
:101AD00003F00403002B08D01C4B5B6823F4E06286
:101AE0007B68DB68194913434B607B681B6803F014
:101AF0000803002B09D0154B5B6823F460527B6808
:101B00001B69DB00114913434B6000F025F80146C7
:101B10000E4B5B6803F0F002F0233B613B6993FAE4
:101B2000A3F3FB60FB68B3FA83F322FA03F3084ADA
:101B3000D35C21FA03F3074A13600020FEF7B6FBDB
:101B4000002318467837BD4680BD00BF0010024014
:101B5000C44F00080800002080B48BB000AF002301
:101B6000FB610023BB6100237B6200237B610023B8
:101B70003B62294B5B68FB61FB6903F00C03042BA0
:101B800002D0082B03D03CE0244B3B623CE0FB69D5
:101B900003F470124FF47013BB60BB6893FAA3F3A5
:101BA0007B607B68B3FA83F322FA03F31C4AD35CAD
:101BB0007B61194BDB6A03F00F020F233B613B692A
:101BC00093FAA3F3FB60FB68B3FA83F322FA03F3FF
:101BD000144AD35CBB61FB6903F48033002B08D04B
:101BE0000E4ABB69B2FBF3F27B6902FB03F37B6233
:101BF00004E07B690C4A02FB03F37B627B6A3B6275
:101C000002E0064B3B6200BF3B6A18462C37BD46DC
:101C10005DF8047B704700BF0010024000127A009C
:101C2000A44F0008B44F000800093D0080B400AF85
:101C3000034B1B681846BD465DF8047B704700BF28
:101C40000800002080B582B000AFFFF7EFFF01462B
:101C50000B4B5B6803F4E0624FF4E0637B607B68EE
:101C600093FAA3F33B603B68B3FA83F322FA03F3DE
:101C7000044AD35C21FA03F318460837BD4680BDF9
:101C800000100240D44F000880B582B000AFFFF7CB
:101C9000CDFF01460B4B5B6803F460524FF4605379
:101CA0007B607B6893FAA3F33B603B68B3FA83F3F2
:101CB00022FA03F3044AD35C21FA03F318460837E7
:101CC000BD4680BD00100240D44F000880B592B0E0
:101CD00000AF786000233B640023FB637B681B68D4
:101CE00003F48033002B00F0CF80002387F84730C7
:101CF000864BDB6903F08053002B0ED1834BDB69ED
:101D0000824A43F08053D361804BDB6903F08053F8
:101D1000BB60BB68012387F847307D4B1B6803F429
:101D20008073002B18D17A4B1B68794A43F4807377
:101D30001360FEF7FFFA386408E0FEF7FBFA02468C
:101D40003B6CD31A642B01D90323DAE0704B1B6878
:101D500003F48073002BF0D06C4B1B6A03F44073C8
:101D6000FB63FB6B002B7CD07B685B6803F44073E8
:101D7000FA6B9A4275D0654B1B6A23F44073FB6380
:101D80004FF480333B633B6B93FAA3F3FB62FB6A34
:101D9000B3FA83F31A465F4B13449B001A460123A0
:101DA00013604FF48033BB63BB6B93FAA3F37B6385
:101DB0007B6BB3FA83F31A46564B13449B001A46C7
:101DC00000231360514AFB6B1362FB6B03F00103AA
:101DD000002B46D0FEF7AEFA38640AE0FEF7AAFA06
:101DE00002463B6CD31A41F28832934201D9032355
:101DF00087E00223BB62BB6A93FAA3F37B620223F0
:101E00003B623B6A93FAA3F3FB61FB69B3FA83F38A
:101E1000DBB25B09DBB243F00203DBB2022B02D17F
:101E20003A4B1B6A07E00223BB61BB6993FAA3F339
:101E30007B61364B5B6A02223A613A6992FAA2F2FE
:101E4000FA60FA68B2FA82F252B242F0400252B23A
:101E5000D2B202F01F02012101FA02F21340002B5C
:101E6000BCD02A4B1B6A23F440727B685B6827490D
:101E700013430B6297F84730012B05D1234BDB69E5
:101E8000224A23F08053D3617B681B6803F001036F
:101E9000002B08D01D4B1B6B23F003027B689B6853
:101EA0001A4913430B637B681B6803F02003002B64
:101EB00008D0164B1B6B23F010027B68DB681349BC
:101EC00013430B637B681B6803F08003002B08D06F
:101ED0000E4BDB6A23F4F8727B681B690B491343D2
:101EE000CB627B681B6803F48053002B08D0074B40
:101EF0001B6B23F480727B685B69044913430B639B
:101F0000002318464837BD4680BD00BF0010024080
:101F1000007000400081901080B584B000AF786000
:101F20007B68002B01D101237CE07B6800229A6250
:101F30007B6893F85D30DBB2002B06D17B68002212
:101F400083F85C20786801F021FC7B68022283F82A
:101F50005D207B681B681A687B681B6822F0400262
:101F60001A607B68DB68B3F5E06F02D90023FB6081
:101F700002E04FF48053FB607B68DB68B3F5706F61
:101F800007D07B68DB68B3F5E06F02D07B68002286
:101F90009A627B681B6B002B0BD17B68DB68B3F507
:101FA000E06F03D97B6802221A6302E07B6801229A
:101FB0001A637B685A687B689B681A437B681B6955
:101FC0001A437B685B691A437B689B6903F400735F
:101FD0001A437B68DB691A437B681B6A42EA030188
:101FE0007B689A6A7B681B680A431A607B689B69F6
:101FF0001B0C03F004027B685B6A1A437B685B6B13
:102000001A437B68DB6842EA03017B681B68FA6855
:102010000A435A607B6800221A667B68012283F8B3
:102020005D20002318461037BD4680BD80B588B0BE
:1020300000AFF860B9603B601346FB800023BB61D2
:102040000023FB77FB6893F85C30012B01D102235E
:102050003EE1FB68012283F85C20FEF76BF9B86172
:10206000FB6893F85D30DBB2012B02D00223FB77D3
:1020700025E1BB68002B02D0FB88002B02D1012395
:10208000FB771CE1FB68032283F85D20FB680022DC
:102090001A66FB68BA689A63FB68FA889A87FB68D5
:1020A000FA88DA87FB6800221A64FB680022A3F82A
:1020B0004420FB680022A3F84620FB6800221A6532
:1020C000FB680022DA64FB689B68B3F5004F07D118
:1020D000FB681B681A68FB681B6842F480421A6040
:1020E000FB681B681B6803F04003402B07D0FB68AC
:1020F0001B681A68FB681B6842F040021A60FB68A4
:10210000DB68B3F5E06F47D9FB685B68002B04D050
:10211000FB68DB8F9BB2012B38D1BB681A88FB6848
:102120001B68DA60BB680233BB60FB68DB8F9BB265
:10213000013B9AB2FB68DA8728E0FB681B689B6862
:1021400003F00203022B0FD1BB681A88FB681B68DF
:10215000DA60BB680233BB60FB68DB8F9BB2013B7C
:102160009AB2FB68DA8711E03B68002B0BD03B6822
:10217000B3F1FF3F0AD0FEF7DDF80246BB69D31A80
:102180003A689A4202D80323FB7798E0FB68DB8F1A
:102190009BB2002BD1D170E0FB685B68002B04D0B0
:1021A000FB68DB8F9BB2012B62D1FB68DB8F9BB29C
:1021B000012B0FD9BB681A88FB681B68DA60BB6803
:1021C0000233BB60FB68DB8F9BB2023B9AB2FB68B9
:1021D000DA874DE0BB685A1CBA60FA6812680C32A4
:1021E0001B781370FB68DB8F9BB2013B9AB2FB68D4
:1021F000DA873DE0FB681B689B6803F00203022B53
:1022000024D1FB68DB8F9BB2012B0FD9BB681A88E6
:10221000FB681B68DA60BB680233BB60FB68DB8F5E
:102220009BB2023B9AB2FB68DA8721E0BB685A1C7A
:10223000BA60FA6812680C321B781370FB68DB8F87
:102240009BB2013B9AB2FB68DA8711E03B68002B36
:102250000BD03B68B3F1FF3F0AD0FEF76BF80246A4
:10226000BB69D31A3A689A4202D80323FB7726E067
:10227000FB68DB8F9BB2002BBCD1BA693968F86868
:1022800000F002FB0346002B02D0FB6820221A66F6
:10229000FB689B68002B0AD100237B61FB681B68ED
:1022A000DB687B61FB681B689B687B617B69FB6803
:1022B0001B6E002B02D00123FB7700E000BFFB6800
:1022C000012283F85D20FB68002283F85C20FB7FFD
:1022D00018462037BD4680BD80B58AB000AFF86093
:1022E000B9607A607B800023FB610023BB6100231F
:1022F0007B6101237B62002387F82330FB6893F81E
:102300005C30012B01D10223E2E1FB68012283F85A
:102310005C20FEF70FF87861FB6893F85D30DBB264
:10232000FB61FB685B68BB61FB69012B0ED0BB697D
:10233000B3F5827F06D1FB689B68002B02D1FB6955
:10234000042B03D0022387F82330B7E1BB68002BAE
:1023500005D07B68002B02D07B88002B03D10123A2
:1023600087F82330AAE1FB6893F85D30DBB2042BD9
:1023700003D0FB68052283F85D20FB6800221A6603
:10238000FB687A681A64FB687A88A3F84620FB68C1
:102390007A88A3F84420FB68BA689A63FB687A8855
:1023A000DA87FB687A889A87FB680022DA64FB6820
:1023B00000221A65FB68DB68B3F5E06F05D8FB689F
:1023C000B3F846309BB2012B08D9FB681B685A68EA
:1023D000FB681B6822F480525A6007E0FB681B68A8
:1023E0005A68FB681B6842F480525A60FB681B689D
:1023F0001B6803F04003402B07D0FB681B681A687A
:10240000FB681B6842F040021A60FB68DB68B3F5AA
:10241000E06F75D9FB685B68002B04D0FB68DB8F2D
:102420009BB2012B60D1BB681A88FB681B68DA601D
:10243000BB680233BB60FB68DB8F9BB2013B9AB287
:10244000FB68DA8750E07B6A002B1CD0FB68DB8FCF
:102450009BB2002B17D0FB681B689B6803F002033C
:10246000022B10D1BB681A88FB681B68DA60BB6856
:102470000233BB60FB68DB8F9BB2013B9AB2FB6807
:10248000DA8700237B62FB68B3F846309BB2002BEF
:102490001AD0FB681B689B6803F00103012B13D162
:1024A000FB681B68DB689AB27B681A807B68023322
:1024B0007B60FB68B3F846309BB2013B9AB2FB6885
:1024C000A3F8462001237B623B6BB3F1FF3F0BD0A7
:1024D000FDF730FF02467B69D31A3A6B9A4203D864
:1024E000032387F82330E9E0FB68DB8F9BB2002BE6
:1024F000A9D1FB68B3F846309BB2002BA3D1C9E049
:10250000FB685B68002B05D0FB68DB8F9BB2012B5F
:1025100040F0B380FB68DB8F9BB2012B0FD9BB6807
:102520001A88FB681B68DA60BB680233BB60FB6813
:10253000DB8F9BB2023B9AB2FB68DA879DE0BB68F7
:102540005A1CBA60FA6812680C321B781370FB6868
:10255000DB8F9BB2013B9AB2FB68DA878DE07B6A26
:10256000002B31D0FB68DB8F9BB2002B2CD0FB689B
:102570001B689B6803F00203022B25D1FB68DB8FED
:102580009BB2012B0FD9BB681A88FB681B68DA6005
:10259000BB680233BB60FB68DB8F9BB2023B9AB225
:1025A000FB68DA870EE0BB685A1CBA60FA681268EA
:1025B0000C321B781370FB68DB8F9BB2013B9AB225
:1025C000FB68DA8700237B62FB68B3F846309BB276
:1025D000002B42D0FB681B689B6803F00103012BB2
:1025E0003BD1FB68B3F846309BB2012B20D9FB6886
:1025F0001B68DB689AB27B681A807B6802337B6059
:10260000FB68B3F846309BB2023B9AB2FB68A3F872
:102610004620FB68B3F846309BB2012B1BD8FB6801
:102620001B685A68FB681B6842F480525A6012E0CB
:10263000FB681B6803F10C027B68591C79601278F7
:10264000D2B21A70FB68B3F846309BB2013B9AB223
:10265000FB68A3F8462001237B623B6BB3F1FF3F8D
:102660000BD0FDF767FE02467B69D31A3A6B9A429C
:1026700003D8032387F8233020E0FB68DB8F9BB26D
:10268000002B7FF46CAFFB68B3F846309BB2002B95
:102690007FF465AF7A69396BF86800F0F5F80346A6
:1026A000002B02D0FB6820221A66FB681B6E002BF1
:1026B00003D0012387F8233000E000BFFB6801222C
:1026C00083F85D20FB68002283F85C2097F82330B4
:1026D00018462837BD4680BD80B584B000AFF8608D
:1026E000B9607A603B604CE03B68B3F1FF3F48D093
:1026F0003B68002B07D0FDF71DFE0246BB69D31ACD
:102700003A689A423DD8FB681B685A68FB681B68A8
:1027100022F0E0025A60FB685B68B3F5827F11D15A
:10272000FB689B68B3F5004F04D0FB689B68B3F56A
:10273000806F07D1FB681B681A68FB681B6822F072
:1027400040021A60FB689B6AB3F5005F0FD1FB681B
:102750001B681A68FB681B6822F400521A60FB6849
:102760001B681A68FB681B6842F400521A60FB6819
:10277000012283F85D20FB68002283F85C2003239C
:102780000EE0FB681B689A68BB681340BA689A42FF
:1027900001D1012200E000227B689A42A4D10023EB
:1027A00018461037BD4680BD80B586B000AFF860D2
:1027B000B9607A603B605AE0BB68B3F5C06F09D17D
:1027C0007B68002B06D1FB681B680C331B78DBB2DF
:1027D000FB75FB7D3B68B3F1FF3F48D03B68002BA6
:1027E00007D0FDF7A7FD02463B6AD31A3A689A4222
:1027F0003DD8FB681B685A68FB681B6822F0E00242
:102800005A60FB685B68B3F5827F11D1FB689B68F7
:10281000B3F5004F04D0FB689B68B3F5806F07D118
:10282000FB681B681A68FB681B6822F040021A608C
:10283000FB689B6AB3F5005F0FD1FB681B681A68E1
:10284000FB681B6822F400521A60FB681B681A6858
:10285000FB681B6842F400521A60FB68012283F88F
:102860005D20FB68002283F85C20032308E0FB68FE
:102870001B689A68BB6813407A689A429CD100230F
:1028800018461837BD4680BD80B586B002AFF860E7
:10289000B9607A607B680093BB6800224FF4C05136
:1028A000F868FFF781FF0346002B07D0FB681B6E1B
:1028B00043F02002FB681A66032327E07B6800933D
:1028C000BB6800228021F868FFF706FF0346002B53
:1028D00007D0FB681B6E43F02002FB681A660323D7
:1028E00014E07B680093BB6800224FF4C061F86875
:1028F000FFF75AFF0346002B07D0FB681B6E43F01F
:102900002002FB681A66032300E0002318461037F4
:10291000BD4680BD80B582B000AF78607B68002B7B
:1029200001D1012343E07B6893F86930DBB2002BCF
:1029300006D17B68002283F86820786800F068FF81
:102940007B68242283F869207B681B681A687B688F
:102950001B6822F001021A60786800F0B9F803469B
:10296000012B01D1012322E07B685B6A002B02D09E
:10297000786800F013FA7B681B685A687B681B68EC
:1029800022F490425A607B681B689A687B681B68D7
:1029900022F02A029A607B681B681A687B681B68B1
:1029A00042F001021A60786800F09AFA034618466D
:1029B0000837BD4680BD80B588B002AFF860B96009
:1029C0003B601346FB8000237B61FB6893F8693012
:1029D000DBB2202B77D1BB68002B02D0FB88002B09
:1029E00001D1012370E0FB6893F86830012B01D11D
:1029F000022369E0FB68012283F86820FB6800225B
:102A0000DA66FB68212283F86920FDF793FC786180
:102A1000FB68FA88A3F85020FB68FA88A3F85220D4
:102A200034E0FB68B3F852309BB2013B9AB2FB68CA
:102A3000A3F852203B6800937B6900228021F8684C
:102A400000F097FA0346002B01D003233CE0FB681B
:102A50009B68B3F5805F11D1FB681B69002B0DD11A
:102A6000BB683B613B691A88FB681B68C2F30802BC
:102A700092B21A85BB680233BB6007E0BB685A1C80
:102A8000BA601A78FB681B6892B21A85FB68B3F8C3
:102A900052309BB2002BC4D13B6800937B6900226B
:102AA0004021F86800F065FA0346002B01D00323AB
:102AB0000AE0FB68202283F86920FB68002283F883
:102AC0006820002300E0022318461837BD4680BD69
:102AD00080B586B000AF78600023FB601023FB75E3
:102AE00000237B810023BB820023FB747B689A68F0
:102AF0007B681B691A437B685B691A437B68DB69E7
:102B00001343FB607B681B681A689F4B13407A680D
:102B10001268F9680B4313607B681B685B6823F4D9
:102B200040517B68DA687B681B680A435A607B689F
:102B30009A697B681B6A1343FB607B681B689B6810
:102B400023F430617B681B68FA680A439A607B68EB
:102B50001B688E4A934221D18D4B1B6B03F00303FC
:102B6000032B17D801A252F823F000BF7D2B0008D9
:102B7000892B00088F2B0008832B00080023FB758E
:102B80001EE00223FB751BE00423FB7518E00823FD
:102B9000FB7515E01023FB7500BF11E07B681B6817
:102BA0007C4A934202D10023FB7509E07B681B68D5
:102BB000794A934202D10023FB7501E01023FB7593
:102BC0007B68DB69B3F5004F6FD1FB7D082B57D8CD
:102BD00001A252F823F000BFFD2B0008192C0008B9
:102BE000352C0008812C00084F2C0008812C00088F
:102BF000812C0008812C00086B2C0008FFF722F8BC
:102C000003465A007B685B685B081A447B685B6814
:102C1000B2FBF3F3BB8236E0FFF736F803465A0007
:102C20007B685B685B081A447B685B68B2FBF3F304
:102C3000BB8228E07B685B685B0803F5740303F5DF
:102C400010537A685268B3FBF2F3BB821BE0FEF7C5
:102C500083FF03465A007B685B685B081A447B6805
:102C60005B68B2FBF3F3BB820DE07B685B685B08DB
:102C700003F580327B685B68B2FBF3F3BB8202E052
:102C80000123FB7400BFBB8A23F00F037B81BB8A47
:102C90005B109BB203F007039AB27B8913437B81DD
:102CA0007B681B687A89DA6069E0FB7D082B63D852
:102CB00001A252F823F000BFDD2C0008FD2C000813
:102CC0001D2D0008792D00083D2D0008792D0008E4
:102CD000792D0008792D00085D2D0008FEF7B2FF60
:102CE00002467B685B685B081A447B685B68B2FBE2
:102CF000F3F39AB27B681B68DA6040E0FEF7C4FF2A
:102D000002467B685B685B081A447B685B68B2FBC1
:102D1000F3F39AB27B681B68DA6030E07B685B682B
:102D20005B0803F5F40303F590537A685268B3FB2C
:102D3000F2F39AB27B681B68DA6020E0FEF70CFFC2
:102D400002467B685B685B081A447B685B68B2FB81
:102D5000F3F39AB27B681B68DA6010E07B685B680B
:102D60005B0803F500427B685B68B2FBF3F39AB241
:102D70007B681B68DA6002E00123FB7400BFFB7C08
:102D800018461837BD4680BDF369FFEF0038014093
:102D900000100240004400400048004080B483B06E
:102DA00000AF78607B685B6A03F00103002B0AD0F8
:102DB0007B681B685B6823F400317B689A6A7B68D8
:102DC0001B680A435A607B685B6A03F00203002BAE
:102DD0000AD07B681B685B6823F480317B68DA6A01
:102DE0007B681B680A435A607B685B6A03F00403D4
:102DF000002B0AD07B681B685B6823F480217B680A
:102E00001A6B7B681B680A435A607B685B6A03F035
:102E10000803002B0AD07B681B685B6823F4004121
:102E20007B685A6B7B681B680A435A607B685B6AE5
:102E300003F01003002B0AD07B681B689B6823F407
:102E400080517B689A6B7B681B680A439A607B6839
:102E50005B6A03F02003002B0AD07B681B689B6829
:102E600023F400517B68DA6B7B681B680A439A6025
:102E70007B685B6A03F04003002B1AD07B681B68F9
:102E80005B6823F480117B681A6C7B681B680A43BB
:102E90005A607B681B6CB3F5801F0AD17B681B6886
:102EA0005B6823F4C0017B685A6C7B681B680A432B
:102EB0005A607B685B6A03F08003002B0AD07B6852
:102EC0001B685B6823F400217B689A6C7B681B6835
:102ED0000A435A6000BF0C37BD465DF8047B70475B
:102EE00080B586B002AF78600023FB607B6800226B
:102EF000DA66FDF71FFAF8607B681B681B6803F051
:102F00000803082B0ED16FF07E430093FB6800226C
:102F10004FF40011786800F02CF80346002B01D024
:102F2000032322E07B681B681B6803F00403042B67
:102F30000ED16FF07E430093FB6800224FF48001B6
:102F4000786800F016F80346002B01D003230CE04C
:102F50007B68202283F869207B68202283F86A201E
:102F60007B68002283F86820002318461037BD468E
:102F700080BD80B584B000AFF860B9603B60134697
:102F8000FB712CE0BB69B3F1FF3F28D0BB69002B7C
:102F900007D0FDF7CFF902463B68D31ABA699A42C7
:102FA0001DD2FB681B681A68FB681B6822F4D0728C
:102FB0001A60FB681B689A68FB681B6822F00102B4
:102FC0009A60FB68202283F86920FB68202283F83E
:102FD0006A20FB68002283F8682003230FE0FB6867
:102FE0001B68DA69BB681340BA689A420CBF0123B8
:102FF0000023DBB21A46FB799A42C3D0002318465D
:103000001037BD4680BD00000FB480B5C2B000AF20
:1030100007F58A723B1D1A603B1D07F108001B680B
:10302000D7F810214FF4807101F0DEF907F10803A1
:103030001846FDF7CDF803469AB207F108014FF0A4
:10304000FF330548FFF7B7FC00BF07F58477BD469F
:10305000BDE8804004B07047500100202DE9F041E8
:10306000ADF5107D08AFC548FFF7CEFF00F0A4FD19
:10307000C7F81002D7F81032002B05DAD7F8101273
:10308000BF48FFF7C1FF73E1BE48FFF7BDFF07F57B
:103090000273184600F07CFEC7F81002D7F8103211
:1030A000002B05DAD7F81012B748FFF7ADFF5FE144
:1030B000D7F80812D7F80832B44AA2FB0323DB0979
:1030C0001A46B348FFF7A0FF4AF6CD33C7F80C32D3
:1030D000D7F80C32C7F81C32D7F81C3207F10800B9
:1030E000AC4A4FF4007101F01FF907F108031946CB
:1030F000D7F81C0200F022FFC7F81002D7F81032F0
:10310000002B05DAD7F81012A348FFF77DFF2FE157
:10311000D7F81C12A148FFF777FF07F108034FF417
:1031200000720021184601F0F7F807F1080319466C
:10313000D7F81C0200F09CFEC7F81002D7F8103236
:10314000002B05DAD7F810129548FFF75DFF0FE165
:1031500007F108031B789C4607F108035B789E463D
:1031600007F108039B781A4607F10803DB78194634
:1031700007F108031B79184607F108035B791C4621
:1031800007F108039B791D4607F10803DB791E460A
:1031900007F108031B7A7B6007F108035B7A07934A
:1031A0007B68069305960495039402900191009222
:1031B00073466246D7F81C127A48FFF725FFD7F806
:1031C0000C320133C7F81C32D7F81C0200F0CEFFD6
:1031D000C7F81002D7F81032002B05DAD7F8101212
:1031E0007148FFF711FFC3E0D7F81C126F48FFF7D3
:1031F0000BFF0023C7F8183228E0D7F81C3207F17C
:103200000800644A4FF4007101F08EF807F10803DA
:10321000184600F0E9FFC7F81002D7F81032002B6B
:1032200005DAD7F810126248FFF7EEFEA0E0D7F8F3
:103230001C126048FFF7E8FED7F81C320133C7F8CC
:103240001C32D7F818320133C7F81832D7F81832C1
:10325000022BD2DD01F010F8C7F81002D7F81032B7
:10326000002B05DAD7F810125348FFF7CDFE7FE0A8
:103270005248FFF7C9FED7F80C320133C7F81C32A9
:10328000D7F81C0200F0D2FEC7F81002D7F81032AF
:10329000002B05DAD7F810124948FFF7B5FE67E0B2
:1032A000D7F81C124748FFF7AFFE0023C7F81432C7
:1032B00049E007F10803184600F0F6FEC7F81002CF
:1032C000D7F81032002B05DAD7F810123E48FFF776
:1032D0009BFE4DE007F108031B789C4607F10803AD
:1032E0005B789E4607F108039B78984607F1080330
:1032F000DB781A4607F108031B79194607F1080322
:103300005B79184607F108039B791C4607F108030F
:10331000DB791D4607F108031B7A1E4607F10803F7
:103320005B7A0693059604950394029001910092AE
:103330004346724661462548FFF766FED7F81432C9
:103340000133C7F81432D7F81432022BB1DD00F084
:10335000DFFEC7F81002D7F81032002B05DAD7F8D5
:1033600010121B48FFF750FE02E01A48FFF74CFE10
:1033700007F50877BD46BDE8F08100BFE84B0008BF
:10338000F44B0008184C0008304C0008D34D621074
:10339000604C00089C4C0008A44C0008D44C000869
:1033A000044D0008344D0008844D0008AC4D000861
:1033B000D44D0008FC4D0008284E0008504E00086F
:1033C0006C4E0008944E0008BC4E0008E44E000805
:1033D000204F0008484F0008B0B58AB000AF114B2D
:1033E00007F118040FCB07C4238002341B0C237091
:1033F0000D4B3C1D1D460FCD0FC42B682370FCF7F1
:103400003FFF00F015F800F013F900F063F800F04A
:10341000A1F800F0DDF80548FFF7F6FDFFF71EFE06
:10342000FEE700BF7C4F00088C4F0008644F000887
:1034300080B596B000AF07F130032822002118466E
:1034400000F06AFF07F11C0300221A605A609A60BC
:10345000DA601A613B1D00221A605A609A60DA60D5
:103460001A615A6102233B6301233B6410237B648E
:103470000023FB6407F130031846FDF703FB034606
:10348000002B01D000F012F90F23FB6100233B62F7
:1034900000237B620023BB620023FB6207F11C0355
:1034A00000211846FEF7DCF90346002B01D000F09E
:1034B000FDF820237B6000233B613B1D1846FEF78F
:1034C00005FC0346002B01D000F0F0F800BF583790
:1034D000BD4680BD80B500AF1B4B1C4A1A601A4B1D
:1034E0001B4A5A60184B00229A60174B0122DA607F
:1034F000154B00221A61144B00225A61124B002214
:103500009A61114B0022DA610F4B00221A620E48B9
:10351000FDF790F90346002B01D000F0C7F8002119
:103520000948FDF716FA0346002B01D000F0BEF85B
:1035300000210548FDF758FA0346002B01D000F0A2
:10354000B5F800BF80BD00BFA000002000540040BF
:103550000E09002080B500AF1B4B1C4A1A601A4BA5
:103560004FF482725A60184B00229A60164B4FF447
:10357000E062DA60144B00221A61134B00225A6198
:10358000114B4FF400729A610F4B1022DA610E4B0F
:1035900000221A620C4B00225A620B4B00229A62E4
:1035A000094B0722DA62084B00221A63064B0022FD
:1035B0005A630548FEF7B0FC0346002B01D000F02B
:1035C00075F800BF80BD00BFEC0000200030014056
:1035D00080B500AF144B154A1A60134B4FF41642D6
:1035E0005A60114B00229A600F4B0022DA600E4B9A
:1035F00000221A610C4B0C225A610B4B00229A617B
:10360000094B0022DA61084B00221A62064B0022A5
:103610005A620548FFF77EF90346002B01D000F0FF
:1036200045F800BF80BD00BF5001002000440040AD
:1036300080B588B000AF07F10C0300221A605A6011
:103640009A60DA601A61184B5B69174A43F40033D9
:103650005361154B5B6903F40033BB60BB68124BCD
:103660005B69114A43F4802353610F4B5B6903F498
:1036700080237B607B68002210214FF09040FDF793
:10368000C1F81023FB6001233B6100237B61002311
:10369000BB6107F10C0319464FF09040FCF73CFF6B
:1036A00000BF2037BD4680BD0010024080B400AF8F
:1036B00000BFBD465DF8047B7047000080B483B056
:1036C00000AF0F4B9B690E4A43F0010393610C4B13
:1036D0009B6903F001037B607B68094BDB69084A47
:1036E00043F08053D361064BDB6903F080533B60AA
:1036F0003B6800BF0C37BD465DF8047B704700BFD8
:103700000010024080B58AB000AF786007F1140362
:1037100000221A605A609A60DA601A617B681B683E
:10372000174A934227D1174B5B69164A43F480230B
:103730005361144B5B6903F480233B613B69C023F5
:103740007B611223BB610123FB6103233B620423E2
:103750007B6207F1140319460B48FCF7DDFE094BA9
:10376000DB69084A43F40013D361064BDB6903F4B9
:103770000013FB60FB6800BF2837BD4680BD00BF5B
:1037800000540040001002400004004880B58AB098
:1037900000AF786007F1140300221A605A609A6043
:1037A000DA601A617B681B68174A934228D1174B6D
:1037B0009B69164A43F480539361144B9B6903F44D
:1037C00080533B613B69114B5B69104A43F4003302
:1037D00053610E4B5B6903F40033FB60FB68E0232D
:1037E0007B610223BB610023FB6103233B62052352
:1037F0007B6207F1140319464FF09040FCF78CFEF2
:1038000000BF2837BD4680BD003001400010024097
:1038100080B58AB000AF786007F1140300221A6007
:103820005A609A60DA601A617B681B68174A934293
:1038300028D1174BDB69164A43F40033D361144B8C
:10384000DB6903F400333B613B69114B5B69104A50
:1038500043F4003353610E4B5B6903F40033FB60A8
:10386000FB680C237B610223BB610023FB61032304
:103870003B6207237B6207F1140319464FF0904027
:10388000FCF74AFE00BF2837BD4680BD004400401B
:103890000010024080B400AF0E4B1B78DBB2002B4F
:1038A00006D00C4B1B78DBB2013BDAB2094B1A7025
:1038B000094B1B78DBB2002B06D0074B1B78DBB221
:1038C000013BDAB2044B1A7000BFBD465DF8047BC1
:1038D000704700BFC1010020C001002080B400AFCC
:1038E00000BFBD465DF8047B704780B400AFFEE7C3
:1038F00080B400AFFEE780B400AFFEE780B400AF55
:10390000FEE780B400AF00BFBD465DF8047B7047A2
:1039100080B400AF00BFBD465DF8047B704780B443
:1039200000AF00BFBD465DF8047B704780B500AFB7
:103930000A4B1B78DBB20133DAB2084B1A70074B23
:103940001B78DBB2092B04D9044B00221A70FFF755
:10395000A1FFFCF7DBFC00BF80BD00BF8C00002096
:1039600080B584B000AF7860114B1B68002B02D18A
:103970000F4B104A1A600E4B1B68FB600C4B1A6809
:103980007B6813446A46934207D900F09BFC0246C9
:103990000C2313604FF0FF3306E0054B1A687B6879
:1039A0001344034A1360FB6818461037BD4680BDB8
:1039B00090000020C801002080B400AF1F4BD3F856
:1039C00088301E4A43F47003C2F888301C4B1B68D1
:1039D0001B4A43F001031360194B5A681849194BED
:1039E00013404B60164B1B68154A23F0847323F475
:1039F00080331360124B1B68114A23F48023136039
:103A00000F4B5B680E4A23F4FE0353600C4BDB6ADA
:103A10000B4A23F00F03D362094B1A6B08490A4B78
:103A200013400B63064B00229A60044B4FF0006278
:103A30009A6000BFBD465DF8047B704700ED00E072
:103A4000001002400CC07FF8CCFC00FFDFF834D03F
:103A5000002103E00C4B5B58435004310B480C4BE6
:103A600042189A42F6D30B4A02E0002342F8043B84
:103A7000094B9A42F9D3FFF79FFF00F029FCFFF7AB
:103A8000ABFCFEE700300020505000080000002092
:103A90007000002070000020C8010020FEE780B503
:103AA00000AF002210214FF09040FCF7ABFE00BFAA
:103AB00080BD80B500AF012210214FF09040FCF78F
:103AC000A1FE00BF80BD000080B584B002AFFF231F
:103AD000BB71FA1DB91D4FF0FF3300930123074856
:103AE000FEF7FAFBFB795BB2002B00DAF1E700BFCF
:103AF000FB7918460837BD4680BD00BFEC000020AA
:103B000080B586B002AF0346FB71FF23BB7307F19C
:103B10000F0207F10E014FF0FF3300930123094814
:103B2000FEF7DAFBFB7BFA799A4205D0FB7BFF2B91
:103B3000EDD04FF0FF3301E000BF002318461037EF
:103B4000BD4680BDEC00002080B586B002AF786035
:103B50003960FF23FB730FE007F10F014FF0FF33D4
:103B6000009301237A680848FEF7B6FB7B680133AF
:103B70007B603B68013B3B603B68002BECD1002342
:103B800018461037BD4680BDEC00002080B582B0DD
:103B900000AFFB1D01211846FFF7D6FF0346002B9F
:103BA00002DA4FF0FF3303E0FB79FF2BF1D1002362
:103BB00018460837BD4680BD80B584B000AFFFF71A
:103BC00078FFFF23BB720023FB600AE007F10A01C4
:103BD0004FF0FF3301226848FEF728FAFB680133F3
:103BE000FB60FB68092BF1DDFFF759FFFFF7CEFF04
:103BF0000346002B04DAFFF75CFF4FF0FF33B6E01B
:103C00004FF0FF3306225D495B48FEF70FFAFFF7DE
:103C10005BFF0346012B04D0FFF74BFF4FF0FF3350
:103C2000A5E0FFF7B3FF0346002B04DAFFF741FFDF
:103C30004FF0FF339BE04FF0FF33062250494E48D0
:103C4000FEF7F4F9FFF740FF0346012B04D0FFF71E
:103C500030FF6FF001038AE03B1D04211846FFF797
:103C600073FF0346002B04DAFFF723FF6FF0020314
:103C70007DE0BB7903F00103002B02D0FB79AA2B76
:103C800004D0FFF716FF6FF0030370E0FFF77EFF2D
:103C90000346002B04DAFFF70CFF4FF0FF3366E01A
:103CA0004FF0FF33062237493348FEF7BFF9FFF7DD
:103CB0000BFF0346012B04D0FFF7FBFE6FF004035C
:103CC00055E0FFF763FF0346002B04DAFFF7F1FE30
:103CD0004FF0FF334BE04FF0FF3306222A492648CE
:103CE000FEF7A4F9FFF7F0FE0346FB72FB7A002B08
:103CF00007D0FB7A012BC9D0FFF7DBFE6FF005037D
:103D000035E000BFFFF742FF0346002B04DAFFF760
:103D1000D0FE4FF0FF332AE04FF0FF3306221B495D
:103D20001548FEF783F9FFF7CFFE0346002B04D0BA
:103D3000FFF7BFFE6FF0060319E03B46042118466B
:103D4000FFF702FF0346002B04DAFFF7B2FE6FF025
:103D500007030CE03B7803F0C003C02B04D0FFF74F
:103D6000A8FE6FF0080302E0FFF7A3FE0023184649
:103D70001037BD4680BD00BFEC000020DC4F0008BE
:103D8000E44F0008EC4F0008F44F0008FC4F000817
:103D900080B588B000AF7860FFF781FEFFF7F6FED0
:103DA0000346002B04DAFFF784FE4FF0FF3357E0A1
:103DB0004FF0FF3306222C492C48FEF737F9FFF766
:103DC00083FE0346002B04D0FFF773FE6FF0010360
:103DD00046E0FE20FFF794FE0346002B04DAFFF7CF
:103DE00068FE6FF002033BE007F10C031021184658
:103DF000FFF7AAFE0346002B04DAFFF75AFE6FF026
:103E000003032DE007F1080302211846FFF79CFE8B
:103E10000346002B04DAFFF74CFE6FF004031FE0AB
:103E2000FFF747FE3B7B03F0C003402B02D06FF04F
:103E3000050315E0FB7C03F03F03FB61FB691B02FC
:103E40003A7D1343FB61FB691B027A7D1343FB61DF
:103E5000FB6901335B02FB617B68FA691A6000232E
:103E600018462037BD4680BD04500008EC000020F5
:103E700080B586B000AF78603960FFF710FEFFF7BD
:103E800085FE0346002B04DAFFF713FE4FF0FF33E5
:103E90004DE051233B737B681B0EDBB27B737B6869
:103EA0001B0CDBB2BB737B681B0ADBB2FB737B684A
:103EB000DBB23B74FF237B7407F10C014FF0FF333F
:103EC00006221D48FEF7B2F8FFF7FEFD0346002B61
:103ED00004D0FFF7EEFD6FF0010328E0FE20FFF7AE
:103EE0000FFE0346002B04DAFFF7E3FD6FF0020339
:103EF0001DE04FF400713868FFF726FE0346002BE3
:103F000004DAFFF7D6FD6FF0030310E007F11403A6
:103F100002211846FFF718FE0346002B04DAFFF7CC
:103F2000C8FD6FF0040302E0FFF7C3FD002318464D
:103F30001837BD4680BD00BFEC00002080B586B0BC
:103F400000AF78603960FFF7AAFDFFF71FFE034658
:103F5000002B04DAFFF7ADFD4FF0FF335EE058238E
:103F60003B747B681B0EDBB27B747B681B0CDBB283
:103F7000BB747B681B0ADBB2FB747B68DBB23B75EE
:103F8000FF237B7507F110014FF0FF330622254810
:103F9000FEF74CF8FFF798FD0346002B04D0FFF71F
:103FA00088FD6FF0010339E0FE23FB731E4B1B8875
:103FB000BB8107F10F014FF0FF3301221948FEF7D3
:103FC00035F84FF0FF334FF4007239681548FEF7AB
:103FD0002DF807F10C014FF0FF3302221148FEF7D4
:103FE00025F807F10B0301211846FFF7ADFDFB7A19
:103FF00003F01F03052B04D0FFF75BFD6FF00203F6
:104000000CE0FFF7C3FD0346002B04DAFFF751FD78
:104010006FF0030302E0FFF74CFD0023184618374A
:10402000BD4680BDEC000020A04F000880B584B0E4
:1040300000AF7860FFF733FDFFF7A8FD0346002BC4
:1040400004DAFFF736FD4FF0FF3327E052233B72CF
:104050007B681B0EDBB27B727B681B0CDBB2BB7216
:104060007B681B0ADBB2FB727B68DBB23B73FF230E
:104070007B7307F108014FF0FF3306220948FDF773
:10408000D5FFFFF721FD0346002B04D0FFF711FDFC
:104090006FF0010302E0FFF70CFD00231846103714
:1040A000BD4680BDEC00002080B584B000AF7860D4
:1040B000FFF7F5FCFE20FFF723FD0346002B04DA93
:1040C000FFF7F7FC4FF0FF331DE04FF40071786805
:1040D000FFF73AFD0346002B04DAFFF7EAFC6FF026
:1040E000010310E007F10C0302211846FFF72CFD35
:1040F0000346002B04DAFFF7DCFC6FF0020302E05A
:10410000FFF7D7FC002318461037BD4680BD0000DE
:1041100080B582B000AFFFF7C2FC4FF0FF3306223C
:1041200010491148FDF782FFFB1D01211846FFF7DA
:104130000BFD0346002B04DAFFF7BBFC4FF0FF3307
:104140000CE0FFF7C1FC0346002B04D0FFF7B1FCE5
:104150006FF0010302E0FFF7ACFC002318460837BC
:10416000BD4680BD0C500008EC00002080B584B036
:1041700000AF7860FFF793FCFFF708FD0346002BC4
:1041800004DAFFF796FC4FF0FF3327E059233B7228
:104190007B681B0EDBB27B727B681B0CDBB2BB72D5
:1041A0007B681B0ADBB2FB727B68DBB23B73FF23CD
:1041B0007B7307F108014FF0FF3306220948FDF732
:1041C00035FFFFF781FC0346002B04D0FFF771FC9D
:1041D0006FF0010302E0FFF76CFC00231846103774
:1041E000BD4680BDEC00002080B584B000AF786093
:1041F000FFF755FCFC23FB731D4B1B88BB8107F1AC
:104200000F014FF0FF3301221A48FDF70FFF4FF067
:10421000FF334FF4007279681648FDF707FF07F186
:104220000C014FF0FF3302221248FDF7FFFE07F1A9
:104230000B0301211846FFF787FCFB7A03F01F03ED
:10424000052B04D0FFF735FC4FF0FF330CE0FFF7F0
:104250009DFC0346002B04DAFFF72BFC6FF00103F3
:1042600002E0FFF726FC002318461037BD4680BD4C
:10427000A04F0008EC00002080B582B000AFFFF72F
:104280000EFCFD23FB71F91D4FF0FF3301220C489A
:10429000FDF7CCFEBB1D01211846FFF755FCFFF7CB
:1042A00075FC0346002B04DAFFF703FC4FF0FF33E5
:1042B00002E0FFF7FEFB002318460837BD4680BD2D
:1042C000EC000020014B1868704700BF0C00002074
:1042D00070B50D4E0D4CA41BA4100025A54209D1AC
:1042E0000B4E0C4C00F074FCA41BA4100025A5423E
:1042F00005D170BD56F8253098470135EEE756F8E0
:10430000253098470135F2E748500008485000082A
:10431000485000084C50000802440346934200D124
:10432000704703F8011BF9E70CB430B5174B0C1EAE
:104330009DB01D6808DA8B232B604FF0FF301DB055
:10434000BDE8304002B070474FF40273ADF814304E
:1043500014BF04F1FF332346049307934FF6FF7312
:1043600002900690ADF81630209A21AB02A928469B
:10437000019300F0A1F8431CBCBF8B232B60002CE1
:10438000DDD0029B00221A70D9E700BF0C0000208C
:1043900030B5141E05469BB0184605DA8B232B60FA
:1043A0004FF0FF301BB030BD4FF40273ADF80C304E
:1043B00014BF04F1FF332346029305934FF6FF73B6
:1043C00000910491ADF80E3002461E9B69462846C6
:1043D00000F072F8431CBCBF8B232B60002CE1D093
:1043E000009B00221A70DDE707B5009313460A46CA
:1043F000014603480068FFF7CBFF03B05DF804FBFC
:104400000C0000202DE9F0478E689E4282460C4643
:104410009046994637D88A8912F4906F31D0256832
:1044200009696F1A6569022305EB450595FBF3F5EC
:1044300009F101033B449D4238BF1D46530530D569
:10444000294600F02BFB064650B90C23CAF8003071
:10445000A38943F04003A3814FF0FF30BDE8F0870C
:104460003A46216900F0A8FAA38923F4906343F047
:104470008003A381266165613E44ED1B2660A56033
:104480004E464E4500D94E4632464146206800F021
:104490009EFAA3689B1BA36023681E44266000202D
:1044A000DCE72A4600F054FB06460028E2D12169E9
:1044B000504600F0A5FAC8E72DE9F04F1D468B895C
:1044C0001F069DB080460C4616460FD50B696BB98A
:1044D000402100F0E3FA2060206128B90C23C8F8DD
:1044E00000304FF0FF30C8E04023636100230993A0
:1044F00020238DF8293030238DF82A3003954FF092
:10450000010B37463D4615F8013B0BB1252B3ED13B
:10451000B7EB060A0BD05346324621464046FFF71A
:1045200071FF013000F0A480099B534409933B784C
:10453000002B00F09D8000234FF0FF32CDE90523D2
:10454000049307938DF853301A932F46052217F8DA
:10455000011B5048FBF744FE049BD0B9D90644BF69
:1045600020228DF853201A0744BF2B228DF85320A8
:104570002A782A2A15D0079A2F4600200A2539467C
:1045800011F8013B303B092B4DD9B8B10FE02F4654
:10459000B8E7404A801A0BFA00F0184304903D46F1
:1045A000D3E7039A111D12680391002A01DB0792D9
:1045B00004E0524243F00203079204933B782E2B0F
:1045C0000CD17B782A2B33D1039B1A1D1B680392D5
:1045D000002BB8BF4FF0FF33023705932E4D3978CB
:1045E00003222846FBF7FCFD38B14023401B03FAA9
:1045F00000F0049B034301370493397827488DF872
:10460000281006227E1CFBF7EBFD002838D0244B37
:1046100013BB039B073323F0070308330393099B62
:104620004B4409936DE705FB023201200F46A6E7D4
:1046300000230137059319460A25384610F8012B47
:10464000303A092A03D9002BC8D00591C6E705FBEB
:10465000012101230746F0E703AB00932246114BEB
:1046600004A94046AFF30080B0F1FF3F8146D6D1A8
:10467000A3895B063FF535AF09981DB0BDE8F08F03
:1046800003AB00932246074B04A9404600F082F892
:10469000EAE700BF12500008185000081C5000083C
:1046A00000000000054400082DE9F04791461F4630
:1046B0008A680B69DDF820809342B8BF1346C9F8B9
:1046C000003091F8432006460C4612B10133C9F878
:1046D00000302368990642BFD9F800300233C9F888
:1046E0000030256815F0060507D104F1190AE368C2
:1046F000D9F800209B1AAB4228DC94F8433022689A
:10470000003318BF012392062DD404F14302394629
:104710003046C047013020D02368E568D9F8002032
:1047200003F00603042B08BFAD1AA36822690CBF6F
:1047300025EAE57500259342C4BF9B1AED184FF09A
:1047400000091A344D451AD1002008E001235246D1
:1047500039463046C047013003D14FF0FF30BDE845
:10476000F0870135C3E7E1185A1C302081F8430077
:10477000224494F8451082F843100233C5E7012320
:10478000224639463046C0470130E6D009F10109DA
:10479000D8E700002DE9F04301F1430C0C46097EF7
:1047A00085B06E291746064698460C9A00F0B380ED
:1047B00022D8632936D00AD8002900F0B9805829B8
:1047C00000F0838004F1420584F8421032E064294D
:1047D00001D06929F6D120681368050603F10401A8
:1047E0002AD51B681160002B03DA2D225B4284F866
:1047F00043206F480A2239E0732900F09D8008D8D1
:104800006F2920D07029DDD1236843F02003236075
:1048100003E0752917D07829D4D1782384F845305E
:10482000644855E01368191D1B68116004F14205C6
:1048300084F8423001238CE01B68116010F0400FB7
:1048400018BF1BB2CFE713682568181D1060280633
:1048500001D51B6802E06806FBD51B8854486F2908
:1048600014BF0A220822002184F843106568A5605D
:10487000002DC0F29580216821F004012160002BF9
:104880003DD1002D40F08E806546082A0BD123686B
:10489000DB0708D5236962689A42DEBF302305F83A
:1048A000013C05F1FF35ACEB05032361CDF8008039
:1048B0003B4603AA21463046FFF7F6FE01304DD1B4
:1048C0004FF0FF3005B0BDE8F083394884F845105B
:1048D000136821681D1D1B6815600A060BD5CA07E1
:1048E00044BF41F0200121601BB9226822F0200260
:1048F00022601022B7E74D0648BF9BB2EFE765463E
:10490000B3FBF2F102FB1133C35C05F8013D0B462A
:104910000029F5D1B9E7136825686169181D106091
:1049200028061B6801D5196002E06A06FBD51980CC
:10493000002323616546B9E71368191D11601D68DE
:10494000626800212846FBF74BFC08B1401B606001
:1049500063682361002384F84330A7E723692A466C
:1049600039463046C0470130AAD023689B0713D48C
:10497000E068039B9842B8BF1846A3E701234A4664
:1049800039463046C04701309AD00135E368039A72
:104990009B1AAB42F2DCEBE7002504F11909F5E7BD
:1049A000002BACD1037884F8423004F142056CE767
:1049B000235000083450000810B5431E0A449142A9
:1049C00000D110BD11F8014B03F8014FF7E7884201
:1049D00010B501EB020307D8421E99420AD011F824
:1049E000014B02F8014FF8E78342F5D98118D21A3A
:1049F000D34200D110BD13F8014D01F8014DF7E786
:104A000038B50546002945D051F8043C0C1F002B51
:104A1000B8BFE41800F0D2F81F4A1368104633B943
:104A2000636014602846BDE8384000F0C8B8A3426F
:104A30000CD921686218934204BF1A685B686360EE
:104A400004BF521822600460ECE713465A680AB1AA
:104A5000A242FAD919685818A0420BD12068014423
:104A6000581882421960DDD1106852685A600144BA
:104A70001960D7E702D90C232B60D3E720682118EF
:104A80008A4204BF11685268626004BF091821603D
:104A90005C60C7E738BD00BF9400002070B5CD1C36
:104AA00025F0030508350C2D38BF0C25002D0646D2
:104AB00001DBA94203D90C233360002070BD00F054
:104AC0007DF8214A1468214691B9204C23681BB90E
:104AD000304600F063F820602946304600F05EF86A
:104AE000431C24D10C233360304600F068F8E4E71F
:104AF0000B685B1B18D40B2B0FD90B60CD50CC1857
:104B0000304600F05CF804F10B00231D20F0070094
:104B1000C31AD3D05A42E250D0E78C424B6816BF3A
:104B2000636013600C46EBE70C464968CCE7C41C95
:104B300024F00304A04205D0211A304600F02EF8DC
:104B40000130CFD02560DBE79400002098000020E2
:104B5000F8B5074614460E4621B91146BDE8F8409F
:104B6000FFF79CBF22B9FFF74BFF25462846F8BD4B
:104B700000F026F8A0420FD221463846FFF78EFFFC
:104B800005460028F2D031462246FFF715FF314690
:104B90003846FFF735FFE9E73546E7E738B5064C15
:104BA0000023054608462360FEF7DAFE431C02D1C7
:104BB000236803B12B6038BDC401002070477047E3
:104BC00051F8043C181F002BBCBF0B58C01870478D
:104BD000F8B500BFF8BC08BC9E467047F8B500BFEA
:084BE000F8BC08BC9E467047BA
:104BE8005265616479210D0A000000005344434175
:104BF80052445F496E69742829206661696C65644E
:104C08003A20636F6465203D2025640D0A0000008A
:104C18005344434152445F496E6974282920646FA4
:104C28006E65210D0A0000005344434152445F471A
:104C38006574426C6F636B734E756D62657228297B
:104C4800206661696C65643A20636F6465203D2065
:104C580025640D0A000000005344434152445F4755
:104C68006574426C6F636B734E756D62657228294B
:104C780020646F6E652120626C6F636B734E756D77
:104C8800203D20257520286F72202575204D62292A
:104C98000D0A00003078253038580000534443414D
:104CA80052445F577269746553696E676C65426CEC
:104CB8006F636B2829206661696C65643A20636FAD
:104CC8006465203D2025640D0A00000053444341DB
:104CD80052445F577269746553696E676C65426CBC
:104CE8006F636B283078253038582C202E2E2E29CB
:104CF80020646F6E65210D0A000000005344434193
:104D080052445F5265616453696E676C65426C6FAB
:104D1800636B2829206661696C65643A20636F6457
:104D280065203D2025640D0A0000000053444341DE
:104D380052445F5265616453696E676C65426C6F7B
:104D4800636B283078253038582C202E2E2E2920B9
:104D5800646F6E652120626C6F636B203D20222595
:104D680063256325632563256325632563256325FB
:104D78006325632E2E2E220D0A0000005344434162
:104D880052445F5772697465426567696E282920C5
:104D98006661696C65643A20636F6465203D20250F
:104DA800640D0A005344434152445F577269746565
:104DB800426567696E283078253038582C202E2EA9
:104DC8002E2920646F6E65210D0A0000534443416B
:104DD80052445F577269746544617461282920667A
:104DE80061696C65643A20636F6465203D202564C1
:104DF8000D0A00005344434152445F577269746579
:104E080044617461282920646F6E652120626C6F8B
:104E1800636B41646472203D20253038580D0A00C8
:104E28005344434152445F5772697465456E642820
:104E380029206661696C65643A20636F6465203D6A
:104E48002025640D0A0000005344434152445F5733
:104E580072697465456E64282920646F6E65210D3A
:104E68000A0000005344434152445F526561644262
:104E78006567696E2829206661696C65643A2063F4
:104E88006F6465203D2025640D0A000053444341AA
:104E980052445F52656164426567696E28307825BF
:104EA8003038582C202E2E2E2920646F6E65210D47
:104EB8000A0000005344434152445F526561644410
:104EC8006174612829206661696C65643A20636FA2
:104ED8006465203D2025640D0A00000053444341C9
:104EE80052445F5265616444617461282920646F8B
:104EF8006E652120626C6F636B203D20222563253F
:104F08006325632563256325632563256325632559
:104F1800632E2E2E220D0A005344434152445F5201
:104F2800656164456E642829206661696C65643A28
:104F380020636F6465203D2025640D0A0000000091
:104F48005344434152445F52656164456E64282965
:104F580020646F6E65210D0A00000000496E6974B7
:104F68002073746174757320737461727465642E30
:104F7800200D0A004D505520574F524B2046494EA0
:104F8800450A00004D5055204E4F5420574F524B64
:104F9800494E470A00000000FFFF00000203040515
:104FA800060708090A0B0C0D0E0F10100102030466
:104FB80005060708090A0B0C0D0E0F10000000006B
:104FC80000000000010203040607080900000000B1
:104FD80001020304400000000095000048000001A1
:104FE800AA8700007700000000FF00006940000069
:104FF80000FF00007A00000000FF000049000000E8
:1050080000FF00004C00000000FF232D302B200083
:10501800686C4C006566674546470030313233346A
:10502800353637383941424344454600303132330A
:1050380034353637383961626364656600000000CC
:04504800B5010008A6
:04504C0091010008C6
:10505000100000000100000000127A001000002083
:105060000000000000000000000000000000000040
:105070000000000000000000000000000000000030
:105080000000000000000000000000000000000020
:105090000000000000000000000000000000000010
:1050A0000000000000000000000000000000000000
:1050B00000000000000000000000000000000000F0
:0400000508003A4D68
:00000001FF
