:020000040800F2
:10000000003000209D600008455F0008535F000835
:10001000595F00085F5F0008655F0008000000008E
:100020000000000000000000000000006B5F0008FE
:10003000795F000800000000875F0008955F0008F6
:10004000ED600008ED600008ED600008ED6000085C
:10005000ED600008ED600008ED600008ED6000084C
:10006000ED600008ED600008ED600008ED6000083C
:10007000ED600008ED600008ED600008ED6000082C
:10008000ED600008ED600008ED600008ED6000081C
:10009000ED600008ED600008ED600008ED6000080C
:1000A000ED600008ED600008ED600008ED600008FC
:1000B000ED600008ED60000800000000ED60000841
:1000C000ED6000080000000000000000ED60000886
:1000D00000000000ED600008ED600008ED60000821
:1000E000ED600008ED600008000000000000000066
:1000F0000000000000000000000000000000000000
:1001000000000000000000000000000000000000EF
:100110000000000000000000ED600008ED60000835
:1001200000000000000000000000000000000000CF
:1001300000000000000000000000000000000000BF
:10014000ED600008ED600008000000000000000005
:10015000000000000000000000000000000000009F
:10016000000000000000000000000000000000008F
:10017000000000000000000000000000000000007F
:0801800000000000ED60000822
:1001900010B5054C237833B9044B13B10448AFF3C1
:1001A00000800123237010BD7000002000000000BB
:1001B0002072000808B5034B1BB103490348AFF395
:1001C000008008BD000000007400002020720008BC
:1001D000034613F8012B002AFBD1181A0138704787
:1001E00001F0FF01102A2BDB10F0070F08D010F8E8
:1001F000013B013A8B422DD010F0070F42B3F6D1EC
:10020000F0B441EA012141EA014122F007047FF004
:1002100000070023F0E80256083C85EA010586EA5B
:10022000010685FA47F5A3FA87F586FA47F6A5FA97
:1002300087F68EB9EED1F0BC01F0FF0102F00702A3
:1002400032B110F8013B013A83EA010313B1F8D14E
:100250000020704701387047002D06BF354603382F
:10026000073815F0010F07D1013015F4807F02BF68
:10027000013015F4C03F0130F0BC0138704700BFB9
:100280007BB972B90029BEBF00204FF0004106E0E3
:1002900008BF00281CBF6FF000414FF0FF3000F096
:1002A000A5B9ADF1080C6DE904CE002909DB002BDE
:1002B0001ADB00F035F8DDF804E0DDE9022304B0D4
:1002C0007047404261EB4101002B1BDB00F028F836
:1002D000DDF804E0DDE9022304B0404261EB4101B6
:1002E000524263EB43037047524263EB430300F017
:1002F00017F8DDF804E0DDE9022304B0404261EBC9
:1003000041017047524263EB430300F009F8DDF806
:1003100004E0DDE9022304B0524263EB430370477B
:100320002DE9F047089E04468846002B4BD18A42AF
:10033000154667D9B2FA82F24AB1C2F1200701FA32
:1003400002F320FA07F7954047EA030894404FEA82
:10035000154E230CB8FBFEF71FFA85FC0EFB178821
:1003600043EA084307FB0CF1994209D9EB1807F15E
:10037000FF3080F01B81994240F21881023F2B44EC
:100380005B1AA4B2B3FBFEF00EFB103344EA034445
:1003900000FB0CFCA44509D92C1900F1FF3380F0B7
:1003A0000781A44540F2048102382C4440EA07400A
:1003B000A4EB0C0400271EB1D4400023C6E900437F
:1003C0003946BDE8F0878B4209D9002E00F0EB805A
:1003D0000027C6E9000138463946BDE8F087B3FA80
:1003E00083F7002F47D18B4202D3824200F2FA807A
:1003F000841A61EB030301209846002EE0D0C6E981
:100400000048DDE702B9FFDEB2FA82F2002A40F0CE
:100410008F80491B4FEA154E1FFA85F80127B1FB63
:10042000FEFC230C0EFB1C1143EA014308FB0CF1FC
:10043000994207D9EB180CF1FF3002D2994200F231
:10044000CD808446591AA3B2B1FBFEF00EFB101406
:1004500043EA044408FB00F8A04507D92C1900F131
:10046000FF3302D2A04500F2B6801846A4EB080480
:1004700040EA0C409FE7C7F1200CBB4022FA0CFE7B
:100480004EEA030E01FA07F420FA0CF521FA0CF3F8
:100490004FEA1E482543B3FBF8F92C0C08FB19332F
:1004A0001FFA8EFA44EA034309FB0AF49C4202FA5B
:1004B00007F200FA07F10BD91EEB030309F1FF3035
:1004C00080F087809C4240F28480A9F10209734445
:1004D0001B1BADB2B3FBF8F008FB103345EA034435
:1004E00000FB0AFAA24508D91EEB040400F1FF3311
:1004F0006BD2A24569D90238744440EA0940A0FB96
:100500000289A4EB0A044C45C2464B4654D351D051
:10051000002E69D0B1EB0A0564EB030404FA0CFC6D
:10052000FD40FC404CEA0505C6E90054002747E7BA
:10053000C2F1200320FA03F7954001FA02F021FAF4
:1005400003F34FEA154E3843010CB3FBFEF71FFAD5
:1005500085F80EFB173341EA034107FB08F38B4292
:1005600004FA02F407D9691807F1FF3C2FD28B4235
:100570002DD9023F2944CB1A81B2B3FBFEF00EFB0A
:10058000103341EA034100FB08F38B4207D9691895
:1005900000F1FF3C17D28B4215D902382944C91A01
:1005A00040EA07473BE73746304609E70746E7E6B4
:1005B0001846FBE64145ABD2B8EB020A69EB0E02E6
:1005C00001381346A4E76046E9E7184695E7674611
:1005D000D1E781467CE702382C4447E7ACF1020CB6
:1005E0002B442FE7384608E73746E9E6704700BF57
:1005F00080B483B000AF78607B6803221A707B6898
:1006000000225A707B6803229A707B680322DA709A
:100610007B6803221A717B6803225A7100BF0C3772
:10062000BD465DF8047B704780B58AB004AFF860C2
:100630000B467A60FB72FB689B8C5B00FB82FB685D
:10064000986AFB7A9AB2F98A41F2883302930223BC
:10065000019307F114030093012301F04DFB0346BE
:10066000002B0BD17B7D1B021AB23B7D1BB21343C7
:100670001BB29AB27B681A80012300E0002318465F
:100680001837BD4680BD90B58BB004AFF8607A6076
:100690001A460B46FB721346BB72FB689B8C5B00D1
:1006A000FB82FB68986AFB7A9CB2BB7A9BB2F98AA0
:1006B00041F28832029201937B6800930123224623
:1006C00001F01AFB0346002B01D1002300E00123B7
:1006D00018461C37BD4690BD80B582B000AF78602B
:1006E0007B681A4688217868FFF79EFF0346002B37
:1006F0006FD07B6802331A468A217868FFF794FF2F
:100700000346002B65D07B6804331A468C21786839
:10071000FFF78AFF0346002B5BD07B6806331A463F
:100720008E217868FFF780FF0346002B51D07B684D
:1007300008331A4690217868FFF776FF0346002BAE
:1007400047D07B680A331A4692217868FFF76CFF1E
:100750000346002B3DD07B680C331A469421786801
:10076000FFF762FF0346002B33D07B680E331A4637
:1007700096217868FFF758FF0346002B29D07B6845
:1007800010331A4698217868FFF74EFF0346002B76
:100790001FD07B6812331A469A217868FFF744FF0E
:1007A0000346002B15D07B6814331A469C217868C9
:1007B000FFF73AFF0346002B0BD07B6816331A462F
:1007C0009E217868FFF730FF0346002B01D00123FC
:1007D00000E0002318460837BD4680BD80B584B0D0
:1007E00000AF78607B6803F118020123A1217868CB
:1007F000FFF749FF0346002B4BD17B681A331A469B
:10080000E1217868FFF710FF0346002B41D07B6899
:1008100003F11C020123E3217868FFF734FF03464C
:10082000002B36D107F10E031A46E4217868FFF752
:10083000FBFE0346002B2CD007F10C031A46E521E2
:100840007868FFF7F1FE0346002B22D07B6803F1A6
:1008500022020123E7217868FFF715FF0346002BEA
:1008600017D1FB891B011BB203F47F631AB2FB890A
:100870001B121BB203F00F031BB213431AB27B68A7
:10088000DA83BB891B099BB21AB27B681A840123E5
:1008900000E0002318461037BD4680BD80B588B003
:1008A00004AF78600B46FB701346BB707B689B8C73
:1008B0005B00FB817B68986AFB789AB2F98942F207
:1008C0001073029301230193BB1C0093012301F0D9
:1008D000EDF80346002B01D1002300E00123184668
:1008E0001037BD4680BD80B584B000AF78603960F8
:1008F0007B689B8C762B05D07B689B8C772B01D0FB
:10090000002399E07B6803F132020123D02178684B
:10091000FFF7B9FE0346002B01D000238CE07B6873
:1009200093F83230582B06D07B6893F83230602B26
:1009300001D0002380E0B622E0217868FFF7AEFF07
:100940000346002B01D0002376E007F10C020123BF
:10095000F3217868FFF797FE0346002BF5D13B7B28
:1009600003F00103002BF0D17868FFF7B5FE0346D2
:1009700083F00103DBB2002B00D101E000235BE038
:100980007B6893F83230602B0AD17868FFF726FF36
:10099000034683F00103DBB2002B01D000234BE0C0
:1009A0003B685B795B015AB23B685B789B005BB24A
:1009B00013435BB2FB73FB7B1A46F5217868FFF7A4
:1009C0006DFF0346002B01D0002335E03B681B7808
:1009D000012B02D13B6800221A703B68DB785B0177
:1009E0005AB23B689B789B005BB213435AB23B6898
:1009F0001B785BB213435BB2BB737B6893F83230F6
:100A0000602B0DD13B681B797B737B7B1A46F221EF
:100A10007868FFF743FF0346002B01D000230BE06B
:100A2000BB7B1A46F4217868FFF738FF0346002B9A
:100A300001D0002300E0012318461037BD4680BDD9
:100A400080B487B000AFF860B9607A60BB68DA1034
:100A5000FB681B885B00D31AFA68B2F9022002FB1C
:100A600003F3DB127B61BB681B11FA6812889B1AC7
:100A7000BA681211F9680988521A02FB03F31B13B2
:100A8000FA68B2F9042002FB03F39B133B617A6915
:100A90003B691A447B681A607B681A6813469B009E
:100AA000134480331B1218461C37BD465DF8047B87
:100AB00070472DE9F04B8AB000AFF860B9607A60FA
:100AC0007B6819464FEAE172B1F5FA3342F1FF341F
:100AD000C7E908347B6A3A6A02FB03F27B6A396A27
:100AE00001FB03F31A44396A3B6AA1FB0334224435
:100AF0001446FA68B2F9102011B24FEAE17201FB14
:100B000004F503FB02F02844A3FB01340219144648
:100B1000C7E90634C7E90634FB68B3F90E301BB2E7
:100B20004FEAE3743A6A04FB02F17A6A03FB02F2C9
:100B300088183A6AA2FB031283181A464FF0000580
:100B40004FF00006560446EAD1364D04D7E90612A6
:100B50006B1846EB0204C7E90634FB68B3F90C30A6
:100B600019B24FEAE1724FF000054FF00006CE00D7
:100B70000025D7E906126B1846EB0204C7E90634D4
:100B80007B6A3A6A02FB03F27B6A396A01FB03F370
:100B90001A44396A3B6AA1FB033422441446FA68BA
:100BA000B2F90A2011B24FEAE17201FB04F503FB2E
:100BB00002F02844A3FB0134021914464FF000014F
:100BC0004FF00002190A41EA04612212FB68B3F9EE
:100BD00008301BB24FEAE374386A04FB00F5786A08
:100BE00003FB00F028443D6AA5FB035683191E460B
:100BF0004FF0000B4FF0000C4FEA063C4CEA155C3E
:100C00004FEA053B1BEB01034CEB0204C7E9083438
:100C1000D7E90834191C44F50042FB68DB889BB215
:100C20004FF0000403FB02F501FB04F02844A1FB94
:100C30000334021914464FF000014FF00002611016
:100C4000E217C7E90812D7E90834234301D100238A
:100C5000D4E0BB68C3F580134FEAE374C7E90434FA
:100C60003B694FEA63093B694FEAC378D7E9063429
:100C700045464E46ED1A66EB0406A846B14618EB0B
:100C8000080349EB09049846A14618EB050849EB0F
:100C900006094FF000014FF000024FEA891242EAC4
:100CA00098624FEA881118EB010849EB02094FF0EE
:100CB00000014FF000024FEA890242EA98724FEABF
:100CC00088018846914618EB050849EB06094FF064
:100CD00000014FF000024FEA890242EA98724FEA9F
:100CE00088018846914618EB050049EB0601D7E9D3
:100CF0000823FFF7C5FA03460C46C7E90434FB682E
:100D0000B3F9163019B24FEAE172D7E904564FF041
:100D100000034FF000046B0B43EAC643741303FB5C
:100D200002F501FB04F02844A1FB031283181A46C4
:100D3000D7E904564FF000034FF000046B0B43EA71
:100D4000C643741303FB02F501FB04F02844A1FB26
:100D5000031283181A464FF000034FF000044B0EA5
:100D600043EAC2135416C7E90834FB68B3F91430D8
:100D70001BB24FEAE3743A6904FB02F17A6903FBA0
:100D800002F288183A69A2FB031283181A464FF040
:100D900000034FF00004CB0C43EA4233D414C7E9FC
:100DA0000634D7E90412D7E9083411EB030842EB03
:100DB0000409D7E9063413EB080544EB09064FF0A4
:100DC00000014FF00002290A41EA06613212FB6875
:100DD000B3F912301DB24FEAE5764FF000084FF03C
:100DE00000094FEA061949EA15794FEA051818EB88
:100DF000010349EB0204C7E904343B69184628376C
:100E0000BD46BDE8F08B80B487B000AFF860B96034
:100E10007A607B68A3F596337B61BB689A03FB68B5
:100E2000B3F91E301B05D21AFB68B3F920301946FE
:100E30007B6903FB01F3D31A03F58043DB13FA68E4
:100E400092F9222011467A6902FB01F29212F968A6
:100E5000097F0846796901FB00F1C91201F50041DB
:100E600001FB02F2921202F50012F968B1F91A10B0
:100E700001FB02F202F50052921302FB03F37B61C5
:100E80007B69DB137A69D21302FB03F3DB11FA6887
:100E9000127E02FB03F31B117A69D31A7B617B6913
:100EA00023EAE3737B617B69B3F1C85FA8BF4FF0AE
:100EB000C8537B617B691B1318461C37BD465DF820
:100EC000047B704780B58CB000AFF860B9607A6081
:100ED0003B60FB6893F83230602B07D03B68002BF7
:100EE00002D03B6800221A6000233B603B68002B65
:100EF00001D0082300E00623FB62FB6ADBB207F1A6
:100F00001802F721F868FFF7BEFB0346002B01D05B
:100F1000002338E03B7E1A037B7E1B011343BA7E1D
:100F20001209D2B21343BB62FB7E1A033B7F1B0143
:100F300013437A7F1209D2B213437B6207F1140381
:100F40001A46796AF868FFF77BFD0246BB681A60AB
:100F50007B691A46B96AF868FFF7ABFD02467B6801
:100F60001A603B68002B0DD0BB7F1B02FA7F134336
:100F70003B627B691A46396AF868FFF744FF02460C
:100F80003B681A60012318463037BD4680BD00001B
:100F900080B500AF084B1B68074A43F0100313608D
:100FA000032000F02FF9002000F008F804F0BEFE46
:100FB0000023184680BD00BF0020024080B582B0EB
:100FC00000AF7860124B1A68124B1B7819464FF429
:100FD0007A73B3FBF1F3B2FBF3F3184600F039F97F
:100FE0000346002B01D001230EE07B680F2B0AD8AB
:100FF000002279684FF0FF3000F00FF9064A7B6855
:101000001360002300E0012318460837BD4680BD69
:1010100008000020040000200000002080B400AF81
:10102000064B1B781A46064B1B681344044A136090
:1010300000BFBD465DF8047B704700BF0400002080
:101040009C00002080B400AF034B1B681846BD46CF
:101050005DF8047B704700BF9C00002080B584B021
:1010600000AF7860FFF7EEFFB8607B68FB60FB685D
:10107000B3F1FF3F05D0094B1B781A46FB681344B8
:10108000FB6000BFFFF7DEFF0246BB68D31AFA68B9
:101090009A42F7D800BF1037BD4680BD040000203B
:1010A00080B485B000AF78607B6803F00703FB6015
:1010B0000C4BDB68BB60BA684FF6FF031340BB60A4
:1010C000FB681A02BB68134343F0BF6343F4003369
:1010D000BB60044ABB68D36000BF1437BD465DF8EF
:1010E000047B704700ED00E080B400AF044BDB6888
:1010F0001B0A03F007031846BD465DF8047B7047E2
:1011000000ED00E080B483B000AF03463960FB71AE
:1011100097F90730002B0BDA3B68DAB20C49FB7900
:1011200003F00F03043B1201D2B20B441A7609E01C
:101130003B68DAB2074997F907301201D2B20B4483
:1011400083F8002300BF0C37BD465DF8047B704771
:1011500000ED00E000E100E080B489B000AFF8608D
:10116000B9607A60FB6803F00703FB61FB69C3F1B8
:101170000703042B28BF0423BB61FB690433062B40
:1011800002D9FB69033B00E000237B614FF0FF3293
:10119000BB6902FA03F3DA43BB681A407B699A40E1
:1011A0004FF0FF317B6901FA03F3D9437B680B40B1
:1011B000134318462437BD465DF8047B7047000092
:1011C00080B582B000AF78607B68013BB3F1807F6F
:1011D00001D301230FE00A4A7B68013B53600F21D2
:1011E0004FF0FF30FFF78EFF054B00229A60044B53
:1011F00007221A60002318460837BD4680BD00BF8D
:1012000010E000E080B582B000AF78607868FFF74A
:1012100047FF00BF0837BD4680BD80B586B000AF30
:101220000346B9607A60FB7300237B61FFF75CFFC4
:1012300078617A68B9687869FFF78EFF024697F996
:101240000F3011461846FFF75DFF00BF1837BD4647
:1012500080BD80B582B000AF78607868FFF7B0FFDE
:10126000034618460837BD4680BD000080B487B0ED
:1012700000AF7860396000237B610023FB600023AE
:101280003B614EE13B681A6801217B6901FA03F377
:101290001340FB60FB68002B00F040813B685B68FB
:1012A000022B03D03B685B68122B23D17B69DA08E1
:1012B0007B68083253F822303B617B6903F00703F7
:1012C0009B000F2202FA03F3DB433A6913403B61B0
:1012D0003B681A697B6903F007039B0002FA03F37A
:1012E0003A6913433B617B69DA087B6808323969E4
:1012F00043F822107B681B683B617B695B0003221B
:1013000002FA03F3DB433A6913403B613B685B68D5
:1013100003F003027B695B0002FA03F33A691343AB
:101320003B617B683A691A603B685B68012B0BD0B4
:101330003B685B68022B07D03B685B68112B03D0CE
:101340003B685B68122B30D17B689B683B617B6993
:101350005B00032202FA03F3DB433A6913403B616B
:101360003B68DA687B695B0002FA03F33A6913436E
:101370003B617B683A699A607B685B683B610122EC
:101380007B6902FA03F3DB433A6913403B613B6834
:101390005B681B0903F001027B6902FA03F33A69F7
:1013A00013433B617B683A695A607B68DB683B6149
:1013B0007B695B00032202FA03F3DB433A691340C3
:1013C0003B613B689A687B695B0002FA03F33A6908
:1013D00013433B617B683A69DA603B685B6803F002
:1013E0008053002B00F09A80554B9B69544A43F080
:1013F00001039361524B9B6903F00103BB60BB681F
:10140000504A7B699B08023352F823303B617B6969
:1014100003F003039B000F2202FA03F3DB433A6954
:1014200013403B617B68B3F1904F13D07B68464A11
:1014300093420DD07B68454A934207D07B68444A6B
:10144000934201D1032306E0052304E0022302E0D6
:10145000012300E000237A6902F003029200934026
:101460003A6913433B6137497B699B0802333A6908
:1014700041F82320374B1B683B61FB68DB433A692B
:1014800013403B613B685B6803F48033002B03D05F
:101490003A69FB6813433B612E4A3B6913602D4B4D
:1014A0005B683B61FB68DB433A6913403B613B6827
:1014B0005B6803F40033002B03D03A69FB681343E5
:1014C0003B61244A3B695360224B9B683B61FB684C
:1014D000DB433A6913403B613B685B6803F480136C
:1014E000002B03D03A69FB6813433B61194A3B69FF
:1014F0009360184BDB683B61FB68DB433A69134040
:101500003B613B685B6803F40013002B03D03A692E
:10151000FB6813433B610F4A3B69D3607B6901332E
:101520007B613B681A687B6922FA03F3002B7FF426
:10153000A9AE00BF1C37BD465DF8047B704700BFF5
:10154000001002400000014000040048000800486C
:10155000000C00480004014080B483B000AF786004
:101560000B467B8013467B707B78002B03D07A88F8
:101570007B689A6102E07A887B689A6200BF0C37C8
:10158000BD465DF8047B704780B582B000AF7860DF
:101590007B68002B01D1012381E07B6893F8413007
:1015A000DBB2002B06D17B68002283F840207868EC
:1015B00004F0E0FB7B68242283F841207B681B68F1
:1015C0001A687B681B6822F001021A607B685A68FF
:1015D0007B681B6822F070621A617B681B689A68DE
:1015E0007B681B6822F400429A607B68DB68012BF1
:1015F00007D17B689A687B681B6842F400429A6056
:1016000006E07B689A687B681B6842F404429A6033
:101610007B68DB68022B04D17B681B684FF4006297
:101620005A607B681B685B687A68126843F00073D5
:1016300043F4004353607B681B68DA687B681B686F
:1016400022F40042DA607B681A697B685B6942EACF
:1016500003017B689B691A027B681B680A43DA6096
:101660007B68D9697B681A6A7B681B680A431A60C1
:101670007B681B681A687B681B6842F001021A606D
:101680007B6800225A647B68202283F841207B68B3
:1016900000221A637B68002283F842200023184648
:1016A0000837BD4680BD000080B588B002AFF86045
:1016B0007A601A460B467B8113463B8100237B618F
:1016C000FB6893F84130DBB2202B40F0E480FB68EC
:1016D00093F84030012B01D10223DDE0FB680122A9
:1016E00083F84020FFF7AEFC78617B6900931923F3
:1016F00001224FF40041F86800F0E6FD0346002B9C
:1017000001D00323C8E0FB68212283F84120FB6855
:10171000102283F84220FB6800225A64FB687A6832
:101720005A62FB683A895A85FB6800225A63FB6853
:101730005B8D9BB2FF2B0ED9FB68FF221A85FB68DD
:101740001B8DDAB27989564B00934FF08073F8689D
:1017500000F03AFF70E0FB685B8D9AB2FB681A8577
:10176000FB681B8DDAB279894D4B00934FF0007303
:10177000F86800F029FF5FE07A69396AF86800F0DC
:10178000DDFD0346002B07D0FB685B6C042B01D109
:10179000012381E003237FE0FB685B6A591CFA6840
:1017A00051621A78FB681B689A62FB685B8D9BB27A
:1017B000013B9AB2FB685A85FB681B8D013B9AB2CC
:1017C000FB681A85FB681B8D002B35D1FB685B8D90
:1017D0009BB2002B30D07B6900933B6A00228021B2
:1017E000F86800F071FD0346002B01D0032353E09D
:1017F000FB685B8D9BB2FF2B0ED9FB68FF221A851D
:10180000FB681B8DDAB27989002300934FF0807357
:10181000F86800F0D9FE0FE0FB685B8D9AB2FB68B8
:101820001A85FB681B8DDAB27989002300934FF08B
:101830000073F86800F0C8FEFB685B8D9BB2002B5C
:101840009AD17A69396AF86800F0B8FD0346002B2E
:1018500007D0FB685B6C042B01D101231CE0032340
:101860001AE0FB681B682022DA61FB681B68596874
:10187000FB681A680B4B0B405360FB68202283F80F
:101880004120FB68002283F84220FB68002283F895
:101890004020002300E0022318461837BD4680BDD3
:1018A0000020008000E800FE80B588B002AFF8603C
:1018B0007A601A460B467B8113463B8100237B618D
:1018C000FB6893F84130DBB2202B40F0E580FB68E9
:1018D00093F84030012B01D10223DEE0FB680122A6
:1018E00083F84020FFF7AEFB78617B6900931923F2
:1018F00001224FF40041F86800F0E6FC0346002B9B
:1019000001D00323C9E0FB68222283F84120FB6851
:10191000102283F84220FB6800225A64FB687A6830
:101920005A62FB683A895A85FB6800225A63FB6851
:101930005B8D9BB2FF2B0ED9FB68FF221A85FB68DB
:101940001B8DDAB27989574B00934FF08073F8689A
:1019500000F03AFE71E0FB685B8D9AB2FB681A8575
:10196000FB681B8DDAB279894E4B00934FF0007300
:10197000F86800F029FE60E07A69396AF86800F0DA
:1019800059FD0346002B07D0FB685B6C042B01D18B
:10199000012382E0032380E0FB681B68586AFB6830
:1019A0005B6A591CFA685162C2B21A70FB681B8DDF
:1019B000013B9AB2FB681A85FB685B8D9BB2013BC9
:1019C0009AB2FB685A85FB681B8D002B35D1FB68EA
:1019D0005B8D9BB2002B30D07B6900933B6A002269
:1019E0008021F86800F070FC0346002B01D003232F
:1019F00053E0FB685B8D9BB2FF2B0ED9FB68FF2287
:101A00001A85FB681B8DDAB27989002300934FF0A9
:101A10008073F86800F0D8FD0FE0FB685B8D9AB228
:101A2000FB681A85FB681B8DDAB279890023009365
:101A30004FF00073F86800F0C7FDFB685B8D9BB248
:101A4000002B99D17A69396AF86800F0B7FC03462F
:101A5000002B07D0FB685B6C042B01D101231CE039
:101A600003231AE0FB681B682022DA61FB681B680D
:101A70005968FB681A680C4B0B405360FB682022C6
:101A800083F84120FB68002283F84220FB68002293
:101A900083F84020002300E0022318461837BD4693
:101AA00080BD00BF0024008000E800FE80B588B043
:101AB00002AFF860084611461A4603467B810B4682
:101AC0003B811346FB8000237B61FB6893F8413028
:101AD000DBB2202B40F009813B6A002B02D0BB8C8B
:101AE000002B01D1012301E1FB6893F84030012B69
:101AF00001D10223FAE0FB68012283F84020FFF7BE
:101B0000A1FA78617B690093192301224FF4004107
:101B1000F86800F0D9FB0346002B01D00323E5E071
:101B2000FB68212283F84120FB68402283F8422091
:101B3000FB6800225A64FB683A6A5A62FB68BA8CF6
:101B40005A85FB6800225A63F8883A8979897B694B
:101B50000193BB6A00930346F86800F0D1FA03468C
:101B6000002B0FD0FB685B6C042B05D1FB680022B7
:101B700083F840200123B9E0FB68002283F840206D
:101B80000323B3E0FB685B8D9BB2FF2B0ED9FB6890
:101B9000FF221A85FB681B8DDAB279890023009336
:101BA0004FF08073F86800F00FFD0FE0FB685B8D6D
:101BB0009AB2FB681A85FB681B8DDAB2798900231B
:101BC00000934FF00073F86800F0FEFC7A69B96A80
:101BD000F86800F0B3FB0346002B07D0FB685B6C92
:101BE000042B01D1012381E003237FE0FB685B6AC2
:101BF000591CFA6851621A78FB681B689A62FB6884
:101C00005B8D9BB2013B9AB2FB685A85FB681B8DCA
:101C1000013B9AB2FB681A85FB681B8D002B35D1FE
:101C2000FB685B8D9BB2002B30D07B690093BB6A55
:101C300000228021F86800F047FB0346002B01D00A
:101C4000032353E0FB685B8D9BB2FF2B0ED9FB682F
:101C5000FF221A85FB681B8DDAB279890023009375
:101C60004FF08073F86800F0AFFC0FE0FB685B8D0D
:101C70009AB2FB681A85FB681B8DDAB2798900235A
:101C800000934FF00073F86800F09EFCFB685B8DDA
:101C90009BB2002B9AD17A69B96AF86800F08EFB82
:101CA0000346002B07D0FB685B6C042B01D101239A
:101CB0001CE003231AE0FB681B682022DA61FB6842
:101CC0001B685968FB681A680A4B0B405360FB6835
:101CD000202283F84120FB68002283F84220FB6821
:101CE000002283F84020002300E002231846183722
:101CF000BD4680BD00E800FE80B588B002AFF86048
:101D0000084611461A4603467B810B463B81134623
:101D1000FB8000237B61FB6893F84130DBB2202B12
:101D200040F007813B6A002B02D0BB8C002B01D115
:101D30000123FFE0FB6893F84030012B01D102231F
:101D4000F8E0FB68012283F84020FFF77BF9786117
:101D50007B690093192301224FF40041F86800F0D9
:101D6000B3FA0346002B01D00323E3E0FB682222F1
:101D700083F84120FB68402283F84220FB68002260
:101D80005A64FB683A6A5A62FB68BA8C5A85FB68E7
:101D900000225A63F8883A8979897B690193BB6A82
:101DA00000930346F86800F00BFA0346002B0FD0AF
:101DB000FB685B6C042B05D1FB68002283F8402094
:101DC0000123B7E0FB68002283F840200323B1E041
:101DD000FB685B8D9BB2FF2B0ED9FB68FF221A8537
:101DE000FB681B8DDAB27989544B00934FF08073F6
:101DF000F86800F0E9FB0FE0FB685B8D9AB2FB68C6
:101E00001A85FB681B8DDAB279894C4B00934FF031
:101E10000073F86800F0D8FB7B690093BB6A00226E
:101E20000421F86800F050FA0346002B01D0032388
:101E300080E0FB681B68586AFB685B6A591CFA689B
:101E40005162C2B21A70FB681B8D013B9AB2FB68EB
:101E50001A85FB685B8D9BB2013B9AB2FB685A8581
:101E6000FB681B8D002B35D1FB685B8D9BB2002B73
:101E700030D07B690093BB6A00228021F86800F0B3
:101E800023FA0346002B01D0032353E0FB685B8D4C
:101E90009BB2FF2B0ED9FB68FF221A85FB681B8DB6
:101EA000DAB27989002300934FF08073F86800F06C
:101EB0008BFB0FE0FB685B8D9AB2FB681A85FB68B1
:101EC0001B8DDAB27989002300934FF00073F86814
:101ED00000F07AFBFB685B8D9BB2002B9CD17A698A
:101EE000B96AF86800F06AFA0346002B07D0FB686D
:101EF0005B6C042B01D101231CE003231AE0FB6877
:101F00001B682022DA61FB681B685968FB681A6845
:101F10000B4B0B405360FB68202283F84120FB6889
:101F2000002283F84220FB68002283F8402000232F
:101F300000E0022318461837BD4680BD002400800B
:101F400000E800FE80B588B002AFF8607A603B60C0
:101F50000B467B8100237B6100233B61FB6893F888
:101F60004130DBB2202B40F0C680FB681B689B69C8
:101F700003F40043B3F5004F01D10223BCE0FB683A
:101F800093F84030012B01D10223B5E0FB68012218
:101F900083F84020FB68242283F84120FB6800225C
:101FA0005A64FB68DB68012B07D17B89C3F3090303
:101FB00043F0007343F4005304E07B89C3F3090347
:101FC00043F42053FA6812685360FFF73BF87861D6
:101FD00018E03B68B3F1FF3F14D03B68002B07D0FB
:101FE000FFF730F802467B69D31A3A689A4209D261
:101FF000FB68202283F84120FB68002283F8402000
:10200000032379E0FB681B689B6903F02003202B06
:102010000CD0FB681B689B6903F01003102B05D0E4
:10202000FB6893F84130DBB2A02BD2D1FB681B6870
:102030009B6903F01003102B1AD07B6900933B6857
:1020400000222021F86800F03FF90346002B01D060
:10205000032351E0FB681B682022DA61FB68202221
:1020600083F84120FB68002283F84020002343E0EE
:102070007B6900933B6800222021F86800F024F976
:102080000346002B01D0032336E0FB681B681022B7
:10209000DA61FB681B682022DA613B695A1C3A61ED
:1020A0007A689A4218D1FB681B685A68FB681B68FB
:1020B00042F480425A607B6900933B6800222021F1
:1020C000F86800F001F90346002B01D0032313E068
:1020D000FB681B682022DA613B697A689A423FF606
:1020E00060AFFB68202283F84120FB68002283F860
:1020F0004020032300E0022318461837BD4680BD68
:1021000080B586B002AFF860084611461A4603460D
:102110007B810B463B811346FB80FB88DAB27989D1
:10212000264B00934FF08073F86800F04DFAFA697F
:10213000B969F86800F002F90346002B07D0FB6884
:102140005B6C042B01D1012334E0032332E0FB88D4
:10215000012B05D13B89DAB2FB681B689A621BE050
:102160003B891B0A9BB2DAB2FB681B689A62FA6968
:10217000B969F86800F0E2F80346002B07D0FB6865
:102180005B6C042B01D1012314E0032312E03B8993
:10219000DAB2FB681B689A62FB690093BB69002294
:1021A0008021F86800F090F80346002B01D003234B
:1021B00000E0002318461037BD4680BD0020008097
:1021C00080B586B002AFF860084611461A4603464D
:1021D0007B810B463B811346FB80FB88DAB2798911
:1021E000264B00930023F86800F0EEF9FA69B9690C
:1021F000F86800F0A3F80346002B07D0FB685B6C7F
:10220000042B01D1012334E0032332E0FB88012BAE
:1022100005D13B89DAB2FB681B689A621BE03B89F7
:102220001B0A9BB2DAB2FB681B689A62FA69B96949
:10223000F86800F083F80346002B07D0FB685B6C5E
:10224000042B01D1012314E0032312E03B89DAB20D
:10225000FB681B689A62FB690093BB6900224021FE
:10226000F86800F031F80346002B01D0032300E0AA
:10227000002318461037BD4680BD00BF00200080F7
:1022800080B483B000AF78607B681B689B6903F003
:102290000203022B03D17B681B6800229A627B68D1
:1022A0001B689B6903F00103012B07D07B681B6847
:1022B0009A697B681B6842F001029A6100BF0C3783
:1022C000BD465DF8047B704780B584B000AFF86010
:1022D000B9603B601346FB711CE03B68B3F1FF3F04
:1022E00018D03B68002B07D0FEF7ACFE0246BB6956
:1022F000D31A3A689A420DD2FB68202283F8412013
:10230000FB68002283F84220FB68002283F840200B
:1023100003230FE0FB681B689A69BB681340BA6827
:102320009A420CBF01230023DBB21A46FB799A4282
:10233000D3D0002318461037BD4680BD80B584B089
:1023400000AFF860B9607A602CE07A68B968F86824
:1023500000F0DCF80346002B01D001232AE0BB6823
:10236000B3F1FF3F1ED0BB68002B07D0FEF76AFE1B
:1023700002467B68D31ABA689A4213D2FB685B6C38
:1023800043F02002FB685A64FB68202283F8412056
:10239000FB68002283F84220FB68002283F840207B
:1023A000032307E0FB681B689B6903F00203022B11
:1023B000CBD1002318461037BD4680BD80B584B010
:1023C00000AFF860B9607A6028E07A68B968F868A8
:1023D00000F09CF80346002B01D0012326E0BB68E7
:1023E000002B07D0FEF72EFE02467B68D31ABA6890
:1023F0009A4213D2FB685B6C43F02002FB685A647C
:10240000FB68202283F84120FB68002283F84220E9
:10241000FB68002283F84020032307E0FB681B6869
:102420009B6903F02003202BCFD1002318461037DF
:10243000BD4680BD80B584B000AFF860B9607A60F9
:1024400055E07A68B968F86800F060F80346002B38
:1024500001D0012353E0FB681B689B6903F0200354
:10246000202B29D1FB681B689B6903F00403042B14
:1024700005D1FB681B8D002B01D000233FE0FB68DA
:102480001B682022DA61FB681B685968FB681A68C0
:102490001D4B0B405360FB6800225A64FB682022EE
:1024A00083F84120FB68002283F84220FB68002269
:1024B00083F84020012322E0BB68002B07D0FEF701
:1024C000C1FD02467B68D31ABA689A420FD2FB68F4
:1024D0005B6C43F02002FB685A64FB68202283F89F
:1024E0004120FB68002283F84020032307E0FB68BB
:1024F0001B689B6903F00403042BA2D10023184638
:102500001037BD4680BD00BF00E800FE80B584B036
:1025100000AFF860B9607A60FB681B689B6903F0E4
:102520001003102B48D11CE0BB68B3F1FF3F18D05B
:10253000BB68002B07D0FEF785FD02467B68D31AE7
:10254000BA689A420DD2FB68202283F84120FB68CA
:10255000002283F84220FB68002283F840200323F6
:102560002BE0FB681B689B6903F02003202BDBD169
:10257000FB681B681022DA61FB681B682022DA61A5
:10258000F868FFF77DFEFB681B685968FB681A68EE
:102590000C4B0B405360FB6804225A64FB682022FA
:1025A00083F84120FB68002283F84220FB68002268
:1025B00083F84020012300E0002318461037BD4671
:1025C00080BD00BF00E800FE80B485B000AFF860B9
:1025D0007B600B467B8113467B72FB681B685A68E5
:1025E000BB695B0D03F480610D4B0B43DB4302EAD7
:1025F00003017B89C3F309027B7A1B0403F47F0385
:102600001A437B681A43BB691A43FB681B680A4379
:102610005A6000BF1437BD465DF8047B704700BFA9
:10262000FF63FF0380B483B000AF786039607B68DC
:1026300093F84130DBB2202B38D17B6893F84030DF
:10264000012B01D1022332E07B68012283F8402074
:102650007B68242283F841207B681B681A687B68AA
:102660001B6822F001021A607B681B681A687B688D
:102670001B6822F480521A607B681B6819687B68AB
:102680001B683A680A431A607B681B681A687B6893
:102690001B6842F001021A607B68202283F8412007
:1026A0007B68002283F84020002300E002231846C4
:1026B0000C37BD465DF8047B704780B485B000AF31
:1026C000786039600023FB607B6893F84130DBB2AF
:1026D000202B39D17B6893F84030012B01D10223A4
:1026E00033E07B68012283F840207B68242283F852
:1026F00041207B681B681A687B681B6822F0010216
:102700001A607B681B681B68FB60FB6823F47063BE
:10271000FB603B681B02FA681343FB607B681B6825
:10272000FA681A607B681B681A687B681B6842F04D
:1027300001021A607B68202283F841207B68002216
:1027400083F84020002300E0022318461437BD46DA
:102750005DF8047B7047000080B5ADF5007D00AFEB
:102760003B1D18603B1D1B68002B02D1012300F0AC
:10277000DABE3B1D1B681B6803F00103002B00F051
:102780006E81B54B5B6803F00C03042B0CD0B24B8D
:102790005B6803F00C03082B5AD1AF4B5B6803F462
:1027A0008033B3F5803F53D14FF40033C7F8F43191
:1027B000D7F8F43193FAA3F3C7F8F031D7F8F03132
:1027C000B3FA83F3DBB25B09DBB243F00103DBB2A4
:1027D000012B02D1A04B1B6815E04FF40033C7F862
:1027E000EC31D7F8EC3193FAA3F3C7F8E8314FF4A2
:1027F0000033C7F8E431D7F8E43193FAA3F3C7F80C
:10280000E031954B5B6A4FF40032C7F8DC21D7F812
:10281000DC2192FAA2F2C7F8D821D7F8D821B2FA6F
:1028200082F252B242F0200252B2D2B202F01F0241
:10283000012101FA02F21340002B00F00F813B1D31
:102840001B685B68002B40F00981012300F06BBE20
:102850003B1D1B685B68B3F5803F06D17E4B1B6850
:102860007D4A43F48033136030E03B1D1B685B6896
:10287000002B0CD1784B1B68774A23F4803313600C
:10288000754B1B68744A23F4802313601EE03B1DC4
:102890001B685B68B3F5A02F0CD16F4B1B686E4AA9
:1028A00043F4802313606C4B1B686B4A43F4803302
:1028B00013600BE0684B1B68674A23F48033136096
:1028C000654B1B68644A23F480231360624BDB6A08
:1028D00023F00F023B1D1B689B685F491343CB62CB
:1028E0003B1D1B685B68002B5AD0FEF7ABFBC7F89B
:1028F000F8010AE0FEF7A6FB0246D7F8F831D31A32
:10290000642B02D9032300F00EBE4FF40033C7F846
:10291000D431D7F8D43193FAA3F3C7F8D031D7F82C
:10292000D031B3FA83F3DBB25B09DBB243F00103CE
:10293000DBB2012B02D1484B1B6815E04FF400338A
:10294000C7F8CC31D7F8CC3193FAA3F3C7F8C83124
:102950004FF40033C7F8C431D7F8C43193FAA3F366
:10296000C7F8C0313C4B5B6A4FF40032C7F8BC215A
:10297000D7F8BC2192FAA2F2C7F8B821D7F8B8214B
:10298000B2FA82F252B242F0200252B2D2B202F055
:102990001F02012101FA02F21340002BAAD05EE0CF
:1029A000FEF750FBC7F8F8010AE0FEF74BFB0246C2
:1029B000D7F8F831D31A642B02D9032300F0B3BD42
:1029C0004FF40033C7F8B431D7F8B43193FAA3F316
:1029D000C7F8B031D7F8B031B3FA83F3DBB25B0993
:1029E000DBB243F00103DBB2012B02D11A4B1B68AF
:1029F00015E04FF40033C7F8AC31D7F8AC3193FA97
:102A0000A3F3C7F8A8314FF40033C7F8A431D7F8BF
:102A1000A43193FAA3F3C7F8A0310F4B5B6A4FF4CC
:102A20000032C7F89C21D7F89C2192FAA2F2C7F88D
:102A30009821D7F89821B2FA82F252B242F02002DD
:102A400052B2D2B202F01F02012101FA02F2134087
:102A5000002BAAD103E000BF0010024000BF3B1DC5
:102A60001B681B6803F00203002B00F07081D04B41
:102A70005B6803F00C03002B0BD0CD4B5B6803F0BD
:102A80000C03082B6DD1CA4B5B6803F48033002B19
:102A900067D10223C7F89431D7F8943193FAA3F39E
:102AA000C7F89031D7F89031B3FA83F3DBB25B0902
:102AB000DBB243F00103DBB2012B02D1BC4B1B683C
:102AC00013E00223C7F88C31D7F88C3193FAA3F3C3
:102AD000C7F888310223C7F88431D7F8843193FAD4
:102AE000A3F3C7F88031B24B5B6A0222C7F87C219E
:102AF000D7F87C2192FAA2F2C7F87821D7F878218A
:102B0000B2FA82F252B242F0200252B2D2B202F0D3
:102B10001F02012101FA02F21340002B07D03B1DD6
:102B20001B681B69012B02D0012300F0FCBCA04BE9
:102B30001B6823F0F8023B1D1B685969F823C7F88E
:102B40007431D7F8743193FAA3F3C7F87031D7F81A
:102B50007031B3FA83F301FA03F3954913430B6021
:102B6000F5E03B1D1B681B69002B00F085800123ED
:102B7000C7F86C31D7F86C3193FAA3F3C7F8683112
:102B8000D7F86831B3FA83F303F1845303F5841360
:102B90009B001A4601231360FEF754FAC7F8F801A8
:102BA0000AE0FEF74FFA0246D7F8F831D31A022BA3
:102BB00002D9032300F0B7BC0223C7F86431D7F869
:102BC000643193FAA3F3C7F86031D7F86031B3FAF0
:102BD00083F3DBB25B09DBB243F00103DBB2012B11
:102BE00002D1734B1B6813E00223C7F85C31D7F89E
:102BF0005C3193FAA3F3C7F858310223C7F8543174
:102C0000D7F8543193FAA3F3C7F85031684B5B6A95
:102C10000222C7F84C21D7F84C2192FAA2F2C7F849
:102C20004821D7F84821B2FA82F252B242F020028B
:102C300052B2D2B202F01F02012101FA02F2134095
:102C4000002BAED05A4B1B6823F0F8023B1D1B68CB
:102C50005969F823C7F84431D7F8443193FAA3F3FC
:102C6000C7F84031D7F84031B3FA83F301FA03F3E0
:102C70004F4913430B606AE00123C7F83C31D7F892
:102C80003C3193FAA3F3C7F83831D7F83831B3FAA7
:102C900083F303F1845303F584139B001A46002346
:102CA0001360FEF7CFF9C7F8F8010AE0FEF7CAF99A
:102CB0000246D7F8F831D31A022B02D9032300F0C9
:102CC00032BC0223C7F83431D7F8343193FAA3F376
:102CD000C7F83031D7F83031B3FA83F3DBB25B0990
:102CE000DBB243F00103DBB2012B02D1304B1B6896
:102CF00013E00223C7F82C31D7F82C3193FAA3F351
:102D0000C7F828310223C7F82431D7F8243193FAC1
:102D1000A3F3C7F82031264B5B6A0222C7F81C21B7
:102D2000D7F81C2192FAA2F2C7F81821D7F8182177
:102D3000B2FA82F252B242F0200252B2D2B202F0A1
:102D40001F02012101FA02F21340002BAED13B1DFC
:102D50001B681B6803F00803002B00F0D8803B1DA4
:102D60001B689B69002B67D00123C7F81431D7F883
:102D7000143193FAA3F3C7F81031D7F81031B3FA2E
:102D800083F31A460B4B13449B001A46012313602E
:102D9000FEF758F9C7F8F8010EE0FEF753F90246BE
:102DA000D7F8F831D31A022B06D90323BBE300BFAF
:102DB00000100240208190100223C7F80C31D7F890
:102DC0000C3193FAA3F3C7F808310223C7F8043192
:102DD000D7F8043193FAA3F207F580731A6007F16C
:102DE000FC0302221A6007F1FC031B6893FAA3F2AA
:102DF00007F1F8031A60A54B5A6A07F1F4030221A0
:102E0000196007F1F4031B6893FAA3F107F1F003CB
:102E1000196007F1F0031B68B3FA83F35BB243F068
:102E200060035BB2DBB203F01F03012101FA03F37D
:102E30001340002BB1D06AE007F1EC0301221A60C5
:102E400007F1EC031B6893FAA3F207F1E8031A6099
:102E500007F1E8031B68B3FA83F31A468C4B13445B
:102E60009B001A4600231360FEF7ECF8C7F8F80140
:102E700009E0FEF7E7F80246D7F8F831D31A022B3B
:102E800001D903234FE307F1E40302221A6007F19B
:102E9000E4031B6893FAA3F207F1E0031A6007F159
:102EA000DC0302221A6007F1DC031B6893FAA3F229
:102EB00007F1D8031A6007F1D40302221A6007F160
:102EC000D4031B6893FAA3F207F1D0031A606F4B87
:102ED0005A6A07F1CC030221196007F1CC031B6881
:102EE00093FAA3F107F1C803196007F1C8031B683F
:102EF000B3FA83F35BB243F060035BB2DBB203F07F
:102F00001F03012101FA03F31340002BB1D13B1D34
:102F10001B681B6803F00403002B00F05981002399
:102F200087F8FF31594BDB6903F08053002B12D136
:102F3000564BDB69554A43F08053D361534BDB69F1
:102F400003F0805207F10C031A6007F10C031B68B1
:102F5000012387F8FF314F4B1B6803F48073002B6C
:102F60001AD14C4B1B684B4A43F480731360FEF735
:102F700069F8C7F8F80109E0FEF764F80246D7F8E7
:102F8000F831D31A642B01D90323CCE2414B1B68DF
:102F900003F48073002BEFD03B1D1B68DB68012B13
:102FA00006D13A4B1B6A394A43F0010313622FE002
:102FB0003B1D1B68DB68002B0CD1344B1B6A334A6A
:102FC00023F001031362314B1B6A304A23F00403E0
:102FD00013621DE03B1D1B68DB68052B0CD12B4BDE
:102FE0001B6A2A4A43F004031362284B1B6A274AD0
:102FF00043F0010313620BE0244B1B6A234A23F0C6
:1030000001031362214B1B6A204A23F0040313625D
:103010003B1D1B68DB68002B6BD0FEF713F8C7F86D
:10302000F8010BE0FEF70EF80246D7F8F831D31A94
:1030300041F28832934201D9032374E207F1C403B9
:1030400002221A6007F1C4031B6893FAA3F207F186
:10305000C0031A6007F1BC0302221A6007F1BC0327
:103060001B6893FAA3F207F1B8031A6007F1B803DB
:103070001B68B3FA83F3DBB25B09DBB243F00203F4
:10308000DBB2022B08D1014B1B6A13E00010024097
:10309000208190100070004007F1B40302221A60F2
:1030A00007F1B4031B6893FAA3F207F1B0031A60A7
:1030B000BB4B5B6A07F1AC020221116007F1AC0265
:1030C000126892FAA2F107F1A802116007F1A802B2
:1030D0001268B2FA82F252B242F0400252B2D2B256
:1030E00002F01F02012101FA02F21340002B99D0D5
:1030F00064E0FDF7A7FFC7F8F8010BE0FDF7A2FFBA
:103100000246D7F8F831D31A41F28832934201D9F6
:10311000032308E207F1A40302221A6007F1A403C3
:103120001B6893FAA3F207F1A0031A6007F19C034E
:1031300002221A6007F19C031B6893FAA3F207F1BD
:1031400098031A6007F198031B68B3FA83F3DBB2A4
:103150005B09DBB243F00203DBB2022B02D1904BDE
:103160001B6A0DE007F1940302221A6007F1940331
:103170001B6893FAA3F207F190031A60884B5B6A0D
:1031800007F18C020221116007F18C02126892FA99
:10319000A2F107F18802116007F188021268B2FA01
:1031A00082F252B242F0400252B2D2B202F01F0298
:1031B000012101FA02F21340002B9FD197F8FF3151
:1031C000012B05D1764BDB69754A23F08053D3611F
:1031D0003B1D1B68DB69002B00F0A481704B5B6812
:1031E00003F00C03082B00F09B813B1D1B68DB697F
:1031F000022B40F0138107F184034FF080721A60B4
:1032000007F184031B6893FAA3F207F180031A60A5
:1032100007F180031B68B3FA83F303F1845303F5CA
:1032200084139B001A4600231360FDF70BFFC7F8B9
:10323000F80109E0FDF706FF0246D7F8F831D31A86
:10324000022B01D903236EE107F17C034FF00072DA
:103250001A6007F17C031B6893FAA3F207F1780365
:103260001A6007F178031B68B3FA83F3DBB25B09DA
:10327000DBB243F00103DBB2012B02D1484B1B68E8
:103280001BE007F174034FF000721A6007F174033A
:103290001B6893FAA3F207F170031A6007F16C033D
:1032A0004FF000721A6007F16C031B6893FAA3F2E7
:1032B00007F168031A603A4B5B6A07F164024FF04A
:1032C0000071116007F16402126892FAA2F107F12D
:1032D0006002116007F160021268B2FA82F252B223
:1032E00042F0200252B2D2B202F01F02012101FAD2
:1032F00002F21340002B9DD1294B5B6823F474121A
:103300003B1D1B68596A3B1D1B681B6A0B43244904
:1033100013434B6007F15C034FF080721A6007F1B2
:103320005C031B6893FAA3F207F158031A6007F1D4
:1033300058031B68B3FA83F303F1845303F5841332
:103340009B001A4601231360FDF77CFEC7F8F801C5
:1033500009E0FDF777FE0246D7F8F831D31A022BC1
:1033600001D90323DFE007F154034FF000721A6024
:1033700007F154031B6893FAA3F207F150031A6094
:1033800007F150031B68B3FA83F3DBB25B09DBB2CE
:1033900043F00103DBB2012B04D1014B1B681DE09C
:1033A0000010024007F14C034FF000721A6007F161
:1033B0004C031B6893FAA3F207F148031A6007F164
:1033C00044034FF000721A6007F144031B6893FA3C
:1033D000A3F207F140031A60554B5B6A07F13C0208
:1033E0004FF00071116007F13C02126892FAA2F1ED
:1033F00007F13802116007F138021268B2FA82F25E
:1034000052B242F0200252B2D2B202F01F020121A7
:1034100001FA02F21340002B9BD083E007F1340342
:103420004FF080721A6007F134031B6893FAA3F21D
:1034300007F130031A6007F130031B68B3FA83F316
:1034400003F1845303F584139B001A460023136091
:10345000FDF7F8FDC7F8F80109E0FDF7F3FD0246B6
:10346000D7F8F831D31A022B01D903235BE007F117
:103470002C034FF000721A6007F12C031B6893FABB
:10348000A3F207F128031A6007F128031B68B3FAB7
:1034900083F3DBB25B09DBB243F00103DBB2012B48
:1034A00002D1234B1B681BE007F124034FF000728D
:1034B0001A6007F124031B6893FAA3F207F12003B3
:1034C0001A6007F11C034FF000721A6007F11C0329
:1034D0001B6893FAA3F207F118031A60144B5B6A96
:1034E00007F114024FF00071116007F11402126825
:1034F00092FAA2F107F11002116007F110021268AE
:10350000B2FA82F252B242F0200252B2D2B202F0C9
:103510001F02012101FA02F21340002B9DD101E0AC
:10352000012300E00023184607F50077BD4680BD63
:103530000010024080B59EB000AF78603960002373
:103540007B677B68002B01D1012364E1924B1B68F0
:1035500003F007033A689A4210D98F4B1B6823F097
:1035600007028D493B6813430B608B4B1B6803F0CC
:1035700007033A689A4201D001234CE17B681B683B
:1035800003F00203002B08D0844B5B6823F0F002A9
:103590007B689B68814913434B607B681B6803F021
:1035A0000103002B00F0DF807B685B68012B3DD1BD
:1035B0004FF400333B673B6F93FAA3F3FB66FB6E5C
:1035C000B3FA83F3DBB25B09DBB243F00103DBB296
:1035D000012B02D1714B1B680FE04FF40033BB6627
:1035E000BB6E93FAA3F37B664FF400333B663B6EEE
:1035F00093FAA3F3FB65694B5B6A4FF40032BA653B
:10360000BA6D92FAA2F27A657A6DB2FA82F252B289
:1036100042F0200252B2D2B202F01F02012101FA9E
:1036200002F21340002B7DD10123F4E07B685B683C
:10363000022B3DD14FF000733B653B6D93FAA3F332
:10364000FB64FB6CB3FA83F3DBB25B09DBB243F0E0
:103650000103DBB2012B02D1504B1B680FE04FF08E
:103660000073BB64BB6C93FAA3F37B644FF00073ED
:103670003B643B6C93FAA3F3FB63484B5B6A4FF0EC
:103680000072BA63BA6B92FAA2F27A637A6BB2FAF8
:1036900082F252B242F0200252B2D2B202F01F02C3
:1036A000012101FA02F21340002B3BD10123B2E0C9
:1036B00002233B633B6B93FAA3F3FB62FB6AB3FA0F
:1036C00083F3DBB25B09DBB243F00103DBB2012B16
:1036D00002D1324B1B680DE00223BB62BB6A93FA36
:1036E000A3F37B6202233B623B6A93FAA3F3FB6181
:1036F0002A4B5B6A0222BA61BA6992FAA2F27A6133
:103700007A69B2FA82F252B242F0200252B2D2B2D6
:1037100002F01F02012101FA02F21340002B01D135
:10372000012378E01D4B5B6823F003027B685B6834
:103730001A4913434B60FDF785FC78670AE0FDF7F3
:1037400081FC02467B6FD31A41F28832934201D941
:10375000032360E0114B5B6803F00C027B685B683D
:103760009B009A42EBD10C4B1B6803F007033A68AD
:103770009A4215D2084B1B6823F0070206493B68A2
:1037800013430B60044B1B6803F007033A689A422B
:1037900006D001233FE000BF00200240001002409D
:1037A0007B681B6803F00403002B08D01C4B5B688C
:1037B00023F4E0627B68DB68194913434B607B6844
:1037C0001B6803F00803002B09D0154B5B6823F43A
:1037D00060527B681B69DB00114913434B6000F0AA
:1037E00025F801460E4B5B6803F0F002F0233B61C5
:1037F0003B6993FAA3F3FB60FB68B3FA83F322FA05
:1038000003F3084AD35C21FA03F3074A136000204C
:10381000FDF7D4FB002318467837BD4680BD00BFB6
:1038200000100240F47600080800002080B48BB03D
:1038300000AF0023FB610023BB6100237B620023F8
:103840007B6100233B62294B5B68FB61FB6903F0F2
:103850000C03042B02D0082B03D03CE0244B3B622A
:103860003CE0FB6903F470124FF47013BB60BB685B
:1038700093FAA3F37B607B68B3FA83F322FA03F332
:103880001C4AD35C7B61194BDB6A03F00F020F23E8
:103890003B613B6993FAA3F3FB60FB68B3FA83F3E4
:1038A00022FA03F3144AD35CBB61FB6903F480334F
:1038B000002B08D00E4ABB69B2FBF3F27B6902FB16
:1038C00003F37B6204E07B690C4A02FB03F37B6237
:1038D0007B6A3B6202E0064B3B6200BF3B6A1846D4
:1038E0002C37BD465DF8047B704700BF00100240D6
:1038F00000127A00D4760008E476000800093D0042
:1039000080B400AF034B1B681846BD465DF8047BCE
:10391000704700BF0800002080B582B000AFFFF7FD
:10392000EFFF01460B4B5B6803F4E0624FF4E0638A
:103930007B607B6893FAA3F33B603B68B3FA83F345
:1039400022FA03F3044AD35C21FA03F3184608373A
:10395000BD4680BD001002400477000880B582B0EB
:1039600000AFFFF7CDFF01460B4B5B6803F46052DD
:103970004FF460537B607B6893FAA3F33B603B6832
:10398000B3FA83F322FA03F3044AD35C21FA03F374
:1039900018460837BD4680BD001002400477000875
:1039A00080B592B000AF786000233B640023FB63D6
:1039B0007B681B6803F48033002B00F0CF8000236A
:1039C00087F84730864BDB6903F08053002B0ED11C
:1039D000834BDB69824A43F08053D361804BDB69C0
:1039E00003F08053BB60BB68012387F847307D4BF1
:1039F0001B6803F48073002B18D17A4B1B68794A3B
:103A000043F480731360FDF71DFB386408E0FDF795
:103A100019FB02463B6CD31A642B01D90323DAE06D
:103A2000704B1B6803F48073002BF0D06C4B1B6A47
:103A300003F44073FB63FB6B002B7CD07B685B68FB
:103A400003F44073FA6B9A4275D0654B1B6A23F4FA
:103A50004073FB634FF480333B633B6B93FAA3F3F8
:103A6000FB62FB6AB3FA83F31A465F4B13449B0075
:103A70001A46012313604FF48033BB63BB6B93FA88
:103A8000A3F37B637B6BB3FA83F31A46564B134461
:103A90009B001A4600231360514AFB6B1362FB6BB9
:103AA00003F00103002B46D0FDF7CCFA38640AE09E
:103AB000FDF7C8FA02463B6CD31A41F288329342B2
:103AC00001D9032387E00223BB62BB6A93FAA3F305
:103AD0007B6202233B623B6A93FAA3F3FB61FB69BF
:103AE000B3FA83F3DBB25B09DBB243F00203DBB270
:103AF000022B02D13A4B1B6A07E00223BB61BB6970
:103B000093FAA3F37B61364B5B6A02223A613A690E
:103B100092FAA2F2FA60FA68B2FA82F252B242F073
:103B2000400252B2D2B202F01F02012101FA02F2A7
:103B30001340002BBCD02A4B1B6A23F440727B68D5
:103B40005B68274913430B6297F84730012B05D177
:103B5000234BDB69224A23F08053D3617B681B68C7
:103B600003F00103002B08D01D4B1B6B23F0030255
:103B70007B689B681A4913430B637B681B6803F0DF
:103B80002003002B08D0164B1B6B23F010027B6820
:103B9000DB68134913430B637B681B6803F08003E6
:103BA000002B08D00E4BDB6A23F4F8727B681B698C
:103BB0000B491343CB627B681B6803F48053002BD3
:103BC00008D0074B1B6B23F480727B685B69044948
:103BD00013430B63002318464837BD4680BD00BF22
:103BE00000100240007000400081901080B584B049
:103BF00000AF78607B68002B01D101237CE07B68FB
:103C000000229A627B6893F85D30DBB2002B06D10C
:103C10007B68002283F85C20786802F0EFF87B680C
:103C2000022283F85D207B681B681A687B681B682A
:103C300022F040021A607B68DB68B3F5E06F02D9BE
:103C40000023FB6002E04FF48053FB607B68DB687D
:103C5000B3F5706F07D07B68DB68B3F5E06F02D017
:103C60007B6800229A627B681B6B002B0BD17B6800
:103C7000DB68B3F5E06F03D97B6802221A6302E0C8
:103C80007B6801221A637B685A687B689B681A43C9
:103C90007B681B691A437B685B691A437B689B6975
:103CA00003F400731A437B68DB691A437B681B6A61
:103CB00042EA03017B689A6A7B681B680A431A60C0
:103CC0007B689B691B0C03F004027B685B6A1A43E8
:103CD0007B685B6B1A437B68DB6842EA03017B68A5
:103CE0001B68FA680A435A607B6800221A667B6880
:103CF000012283F85D20002318461037BD4680BDA1
:103D000080B588B000AFF860B9603B601346FB80B7
:103D10000023BB610023FB77FB6893F85C30012B29
:103D200001D102233EE1FB68012283F85C20FDF70C
:103D300089F9B861FB6893F85D30DBB2012B02D0E2
:103D40000223FB7725E1BB68002B02D0FB88002B08
:103D500002D10123FB771CE1FB68032283F85D207D
:103D6000FB6800221A66FB68BA689A63FB68FA88E7
:103D70009A87FB68FA88DA87FB6800221A64FB6876
:103D80000022A3F84420FB680022A3F84620FB6829
:103D900000221A65FB680022DA64FB689B68B3F5B1
:103DA000004F07D1FB681B681A68FB681B6842F468
:103DB00080421A60FB681B681B6803F04003402BBD
:103DC00007D0FB681B681A68FB681B6842F040025A
:103DD0001A60FB68DB68B3F5E06F47D9FB685B6886
:103DE000002B04D0FB68DB8F9BB2012B38D1BB6862
:103DF0001A88FB681B68DA60BB680233BB60FB682B
:103E0000DB8F9BB2013B9AB2FB68DA8728E0FB6844
:103E10001B689B6803F00203022B0FD1BB681A8852
:103E2000FB681B68DA60BB680233BB60FB68DB8F32
:103E30009BB2013B9AB2FB68DA8711E03B68002B2A
:103E40000BD03B68B3F1FF3F0AD0FDF7FBF8024609
:103E5000BB69D31A3A689A4202D80323FB7798E0E9
:103E6000FB68DB8F9BB2002BD1D170E0FB685B68F5
:103E7000002B04D0FB68DB8F9BB2012B62D1FB6867
:103E8000DB8F9BB2012B0FD9BB681A88FB681B68BC
:103E9000DA60BB680233BB60FB68DB8F9BB2023B1E
:103EA0009AB2FB68DA874DE0BB685A1CBA60FA68C0
:103EB00012680C321B781370FB68DB8F9BB2013BDE
:103EC0009AB2FB68DA873DE0FB681B689B6803F0E9
:103ED0000203022B24D1FB68DB8F9BB2012B0FD98D
:103EE000BB681A88FB681B68DA60BB680233BB607A
:103EF000FB68DB8F9BB2023B9AB2FB68DA8721E05A
:103F0000BB685A1CBA60FA6812680C321B781370CE
:103F1000FB68DB8F9BB2013B9AB2FB68DA8711E04A
:103F20003B68002B0BD03B68B3F1FF3F0AD0FDF795
:103F300089F80246BB69D31A3A689A4202D8032329
:103F4000FB7726E0FB68DB8F9BB2002BBCD1BA6904
:103F50003968F86800F002FB0346002B02D0FB68CA
:103F600020221A66FB689B68002B0AD100237B6124
:103F7000FB681B68DB687B61FB681B689B687B6177
:103F80007B69FB681B6E002B02D00123FB7700E0EE
:103F900000BFFB68012283F85D20FB68002283F8E4
:103FA0005C20FB7F18462037BD4680BD80B58AB0B7
:103FB00000AFF860B9607A607B800023FB6100236A
:103FC000BB6100237B6101237B62002387F82330E0
:103FD000FB6893F85C30012B01D10223E2E1FB681E
:103FE000012283F85C20FDF72DF87861FB6893F8D7
:103FF0005D30DBB2FB61FB685B68BB61FB69012B79
:104000000ED0BB69B3F5827F06D1FB689B68002B9D
:1040100002D1FB69042B03D0022387F82330B7E1D8
:10402000BB68002B05D07B68002B02D07B88002B5F
:1040300003D1012387F82330AAE1FB6893F85D30B0
:10404000DBB2042B03D0FB68052283F85D20FB68FC
:1040500000221A66FB687A681A64FB687A88A3F8FB
:104060004620FB687A88A3F84420FB68BA689A6304
:10407000FB687A88DA87FB687A889A87FB6800226F
:10408000DA64FB6800221A65FB68DB68B3F5E06F51
:1040900005D8FB68B3F846309BB2012B08D9FB6802
:1040A0001B685A68FB681B6822F480525A6007E05C
:1040B000FB681B685A68FB681B6842F480525A60B0
:1040C000FB681B681B6803F04003402B07D0FB68AC
:1040D0001B681A68FB681B6842F040021A60FB68A4
:1040E000DB68B3F5E06F75D9FB685B68002B04D023
:1040F000FB68DB8F9BB2012B60D1BB681A88FB6821
:104100001B68DA60BB680233BB60FB68DB8F9BB265
:10411000013B9AB2FB68DA8750E07B6A002B1CD027
:10412000FB68DB8F9BB2002B17D0FB681B689B687A
:1041300003F00203022B10D1BB681A88FB681B68CE
:10414000DA60BB680233BB60FB68DB8F9BB2013B6C
:104150009AB2FB68DA8700237B62FB68B3F84630CB
:104160009BB2002B1AD0FB681B689B6803F001030D
:10417000012B13D1FB681B68DB689AB27B681A803D
:104180007B6802337B60FB68B3F846309BB2013B2F
:104190009AB2FB68A3F8462001237B623B6BB3F124
:1041A000FF3F0BD0FCF74EFF02467B69D31A3A6BF8
:1041B0009A4203D8032387F82330E9E0FB68DB8FBA
:1041C0009BB2002BA9D1FB68B3F846309BB2002B01
:1041D000A3D1C9E0FB685B68002B05D0FB68DB8FCF
:1041E0009BB2012B40F0B380FB68DB8F9BB2012BAD
:1041F0000FD9BB681A88FB681B68DA60BB6802339A
:10420000BB60FB68DB8F9BB2023B9AB2FB68DA872C
:104210009DE0BB685A1CBA60FA6812680C321B78C1
:104220001370FB68DB8F9BB2013B9AB2FB68DA87A5
:104230008DE07B6A002B31D0FB68DB8F9BB2002BBB
:104240002CD0FB681B689B6803F00203022B25D16E
:10425000FB68DB8F9BB2012B0FD9BB681A88FB6808
:104260001B68DA60BB680233BB60FB68DB8F9BB204
:10427000023B9AB2FB68DA870EE0BB685A1CBA6050
:10428000FA6812680C321B781370FB68DB8F9BB2E4
:10429000013B9AB2FB68DA8700237B62FB68B3F8C4
:1042A00046309BB2002B42D0FB681B689B6803F032
:1042B0000103012B3BD1FB68B3F846309BB2012BC5
:1042C00020D9FB681B68DB689AB27B681A807B6820
:1042D00002337B60FB68B3F846309BB2023B9AB274
:1042E000FB68A3F84620FB68B3F846309BB2012B6D
:1042F0001BD8FB681B685A68FB681B6842F4805235
:104300005A6012E0FB681B6803F10C027B68591CC1
:1043100079601278D2B21A70FB68B3F846309BB25B
:10432000013B9AB2FB68A3F8462001237B623B6BFA
:10433000B3F1FF3F0BD0FCF785FE02467B69D31A31
:104340003A6B9A4203D8032387F8233020E0FB68B6
:10435000DB8F9BB2002B7FF46CAFFB68B3F8463069
:104360009BB2002B7FF465AF7A69396BF86800F077
:10437000F5F80346002B02D0FB6820221A66FB6882
:104380001B6E002B03D0012387F8233000E000BF11
:10439000FB68012283F85D20FB68002283F85C2023
:1043A00097F8233018462837BD4680BD80B584B0C5
:1043B00000AFF860B9607A603B604CE03B68B3F1F5
:1043C000FF3F48D03B68002B07D0FCF73BFE02467E
:1043D000BB69D31A3A689A423DD8FB681B685A6891
:1043E000FB681B6822F0E0025A60FB685B68B3F56B
:1043F000827F11D1FB689B68B3F5004F04D0FB6846
:104400009B68B3F5806F07D1FB681B681A68FB686F
:104410001B6822F040021A60FB689B6AB3F5005FDC
:104420000FD1FB681B681A68FB681B6822F40052F6
:104430001A60FB681B681A68FB681B6842F400522C
:104440001A60FB68012283F85D20FB68002283F874
:104450005C2003230EE0FB681B689A68BB6813406E
:10446000BA689A4201D1012200E000227B689A4298
:10447000A4D1002318461037BD4680BD80B586B054
:1044800000AFF860B9607A603B605AE0BB68B3F592
:10449000C06F09D17B68002B06D1FB681B680C3309
:1044A0001B78DBB2FB75FB7D3B68B3F1FF3F48D067
:1044B0003B68002B07D0FCF7C5FD02463B6AD31AC8
:1044C0003A689A423DD8FB681B685A68FB681B68CB
:1044D00022F0E0025A60FB685B68B3F5827F11D17D
:1044E000FB689B68B3F5004F04D0FB689B68B3F58D
:1044F000806F07D1FB681B681A68FB681B6822F095
:1045000040021A60FB689B6AB3F5005F0FD1FB683D
:104510001B681A68FB681B6822F400521A60FB686B
:104520001B681A68FB681B6842F400521A60FB683B
:10453000012283F85D20FB68002283F85C200323BE
:1045400008E0FB681B689A68BB6813407A689A4267
:104550009CD1002318461837BD4680BD80B586B073
:1045600002AFF860B9607A607B680093BB68002294
:104570004FF4C051F868FFF781FF0346002B07D0C6
:10458000FB681B6E43F02002FB681A66032327E0DA
:104590007B680093BB6800228021F868FFF706FF64
:1045A0000346002B07D0FB681B6E43F02002FB681C
:1045B0001A66032314E07B680093BB6800224FF463
:1045C000C061F868FFF75AFF0346002B07D0FB686D
:1045D0001B6E43F02002FB681A66032300E00023F1
:1045E00018461037BD4680BD80B582B000AF7860F8
:1045F0007B68002B01D101231DE07B6893F83D30DF
:10460000DBB2002B06D17B68002283F83C2078685F
:1046100001F036FC7B68022283F83D207B681A6833
:104620007B6804331946104600F024F87B680122A9
:1046300083F83D20002318460837BD4680BD80B46E
:1046400083B000AF78607B68022283F83D207B68EE
:104650001B681A687B681B6842F001021A607B685D
:10466000012283F83D20002318460C37BD465DF833
:10467000047B704780B485B000AF78603960002358
:10468000FB607B681B68FB607B68324A934207D003
:104690007B68B3F1804F03D07B682F4A934208D1E7
:1046A000FB6823F07003FB603B685B68FA681343A8
:1046B000FB607B68274A934213D07B68B3F1804F3D
:1046C0000FD07B68244A93420BD07B68234A9342E5
:1046D00007D07B68224A934203D07B68214A9342E9
:1046E00008D1FB6823F44073FB603B68DB68FA6821
:1046F0001343FB60FB6823F080023B685B69134354
:10470000FB607B68FA681A603B689A687B68DA62CB
:104710003B681A687B689A627B680E4A93420BD0AA
:104720007B680E4A934207D07B680D4A934203D0C0
:104730007B680C4A934203D13B681A697B681A6311
:104740007B6801225A6100BF1437BD465DF8047BC7
:10475000704700BF002C01400004004000400140B1
:10476000004401400048014080B485B000AF78604B
:1047700039607B6893F83C30012B01D1022338E08B
:104780007B68012283F83C207B681B685B68FB60C8
:104790007B681B689B68BB607B681B68184A9342F8
:1047A00008D1FB6823F47003FB603B685B68FA6820
:1047B0001343FB60FB6823F07003FB603B681B68DE
:1047C000FA681343FB60BB6823F08003BB603B685F
:1047D0009B68BA681343BB607B681B68FA685A60C1
:1047E0007B681B68BA689A607B68002283F83C206B
:1047F000002318461437BD465DF8047B704700BFA0
:10480000002C014080B582B000AF78607B68002B3F
:1048100001D1012343E07B6893F86930DBB2002BC0
:1048200006D17B68002283F86820786801F048FB95
:104830007B68242283F869207B681B681A687B6880
:104840001B6822F001021A60786800F0B9F803468C
:10485000012B01D1012322E07B685B6A002B02D08F
:10486000786800F013FA7B681B685A687B681B68DD
:1048700022F490425A607B681B689A687B681B68C8
:1048800022F02A029A607B681B681A687B681B68A2
:1048900042F001021A60786800F09AFA034618465E
:1048A0000837BD4680BD80B588B002AFF860B960FA
:1048B0003B601346FB8000237B61FB6893F8693003
:1048C000DBB2202B77D1BB68002B02D0FB88002BFA
:1048D00001D1012370E0FB6893F86830012B01D10E
:1048E000022369E0FB68012283F86820FB6800224C
:1048F000DA66FB68212283F86920FCF7A3FB786164
:10490000FB68FA88A3F85020FB68FA88A3F85220C5
:1049100034E0FB68B3F852309BB2013B9AB2FB68BB
:10492000A3F852203B6800937B6900228021F8683D
:1049300000F097FA0346002B01D003233CE0FB680C
:104940009B68B3F5805F11D1FB681B69002B0DD10B
:10495000BB683B613B691A88FB681B68C2F30802AD
:1049600092B21A85BB680233BB6007E0BB685A1C71
:10497000BA601A78FB681B6892B21A85FB68B3F8B4
:1049800052309BB2002BC4D13B6800937B6900225C
:104990004021F86800F065FA0346002B01D003239C
:1049A0000AE0FB68202283F86920FB68002283F874
:1049B0006820002300E0022318461837BD4680BD5A
:1049C00080B586B000AF78600023FB601023FB75D4
:1049D00000237B810023BB820023FB747B689A68E1
:1049E0007B681B691A437B685B691A437B68DB69D8
:1049F0001343FB607B681B681A689F4B13407A68FF
:104A00001268F9680B4313607B681B685B6823F4CA
:104A100040517B68DA687B681B680A435A607B6890
:104A20009A697B681B6A1343FB607B681B689B6801
:104A300023F430617B681B68FA680A439A607B68DC
:104A40001B688E4A934221D18D4B1B6B03F00303ED
:104A5000032B17D801A252F823F000BF6D4A0008BB
:104A6000794A00087F4A0008734A00080023FB7552
:104A70001EE00223FB751BE00423FB7518E00823EE
:104A8000FB7515E01023FB7500BF11E07B681B6808
:104A90007C4A934202D10023FB7509E07B681B68C6
:104AA000794A934202D10023FB7501E01023FB7584
:104AB0007B68DB69B3F5004F6FD1FB7D082B57D8BE
:104AC00001A252F823F000BFED4A0008094B00088C
:104AD000254B0008714B00083F4B0008714B000844
:104AE000714B0008714B00085B4B0008FEF714FF88
:104AF00003465A007B685B685B081A447B685B6806
:104B0000B2FBF3F3BB8236E0FEF728FF03465A0000
:104B10007B685B685B081A447B685B68B2FBF3F3F5
:104B2000BB8228E07B685B685B0803F5740303F5D0
:104B300010537A685268B3FBF2F3BB821BE0FEF7B6
:104B400075FE03465A007B685B685B081A447B6805
:104B50005B68B2FBF3F3BB820DE07B685B685B08CC
:104B600003F580327B685B68B2FBF3F3BB8202E043
:104B70000123FB7400BFBB8A23F00F037B81BB8A38
:104B80005B109BB203F007039AB27B8913437B81CE
:104B90007B681B687A89DA6069E0FB7D082B63D843
:104BA00001A252F823F000BFCD4B0008ED4B0008E6
:104BB0000D4C0008694C00082D4C0008694C000899
:104BC000694C0008694C00084D4C0008FEF7A4FE33
:104BD00002467B685B685B081A447B685B68B2FBD3
:104BE000F3F39AB27B681B68DA6040E0FEF7B6FE2A
:104BF00002467B685B685B081A447B685B68B2FBB3
:104C0000F3F39AB27B681B68DA6030E07B685B681C
:104C10005B0803F5F40303F590537A685268B3FB1D
:104C2000F2F39AB27B681B68DA6020E0FEF7FEFDC3
:104C300002467B685B685B081A447B685B68B2FB72
:104C4000F3F39AB27B681B68DA6010E07B685B68FC
:104C50005B0803F500427B685B68B2FBF3F39AB232
:104C60007B681B68DA6002E00123FB7400BFFB7CF9
:104C700018461837BD4680BDF369FFEF0038014084
:104C800000100240004400400048004080B483B05F
:104C900000AF78607B685B6A03F00103002B0AD0E9
:104CA0007B681B685B6823F400317B689A6A7B68C9
:104CB0001B680A435A607B685B6A03F00203002B9F
:104CC0000AD07B681B685B6823F480317B68DA6AF2
:104CD0007B681B680A435A607B685B6A03F00403C5
:104CE000002B0AD07B681B685B6823F480217B68FB
:104CF0001A6B7B681B680A435A607B685B6A03F027
:104D00000803002B0AD07B681B685B6823F4004112
:104D10007B685A6B7B681B680A435A607B685B6AD6
:104D200003F01003002B0AD07B681B689B6823F4F8
:104D300080517B689A6B7B681B680A439A607B682A
:104D40005B6A03F02003002B0AD07B681B689B681A
:104D500023F400517B68DA6B7B681B680A439A6016
:104D60007B685B6A03F04003002B1AD07B681B68EA
:104D70005B6823F480117B681A6C7B681B680A43AC
:104D80005A607B681B6CB3F5801F0AD17B681B6877
:104D90005B6823F4C0017B685A6C7B681B680A431C
:104DA0005A607B685B6A03F08003002B0AD07B6843
:104DB0001B685B6823F400217B689A6C7B681B6826
:104DC0000A435A6000BF0C37BD465DF8047B70474C
:104DD00080B586B002AF78600023FB607B6800225C
:104DE000DA66FCF72FF9F8607B681B681B6803F034
:104DF0000803082B0ED16FF07E430093FB6800225E
:104E00004FF40011786800F02CF80346002B01D015
:104E1000032322E07B681B681B6803F00403042B58
:104E20000ED16FF07E430093FB6800224FF48001A7
:104E3000786800F016F80346002B01D003230CE03D
:104E40007B68202283F869207B68202283F86A200F
:104E50007B68002283F86820002318461037BD467F
:104E600080BD80B584B000AFF860B9603B60134688
:104E7000FB712CE0BB69B3F1FF3F28D0BB69002B6D
:104E800007D0FCF7DFF802463B68D31ABA699A42AA
:104E90001DD2FB681B681A68FB681B6822F4D0727D
:104EA0001A60FB681B689A68FB681B6822F00102A5
:104EB0009A60FB68202283F86920FB68202283F82F
:104EC0006A20FB68002283F8682003230FE0FB6858
:104ED0001B68DA69BB681340BA689A420CBF0123A9
:104EE0000023DBB21A46FB799A42C3D0002318464E
:104EF0001037BD4680BD80B58AB002AFF860B9609A
:104F000011461A460B46FB711346BB717523BB76DF
:104F1000FB68FB61FB7963F02F03DAB2BB681A70A0
:104F2000BB681B78FB76FB7E99B205230222F869E9
:104F3000FDF708F80346002B01D001234CE0FB7E6F
:104F400099B207F11A024FF47A7300930123F869BA
:104F5000FCF7AAFB0346002B01D001233CE0FB7EBB
:104F600099B207F119024FF47A7300930123F8699B
:104F7000FCF79AFC0346002B03D001232CE003230B
:104F80002AE000BF7B7E682BF9D16B233B750023A1
:104F90007B75FB7E99B207F114024FF47A7300938C
:104FA0000223F869FCF780FB0346002B01D00123A4
:104FB00012E00722B968F86800F012F8BB791A46C7
:104FC000B968F86800F030F897F828301A46B968E0
:104FD000F86800F099F8002318462037BD4680BDD8
:104FE00080B588B002AFF860B9601346FB71FB680A
:104FF0007B61BB681B78FB7419233B74FB797B7462
:1050000000BFFB7C99B207F110024FF47A73009352
:1050100002237869FCF748FB0346002BF1D10023FB
:1050200018461837BD4680BD80B588B002AFF8601D
:10503000B9601346FB71FB687B61BB681B78FB742E
:105040001C237B7400BFFB7C99B207F111024FF463
:105050007A73009301237869FCF726FB0346002B43
:10506000F1D100BFFB7C99B207F112024FF47A73C1
:10507000009301237869FCF717FC0346002BF1D15C
:10508000BB7C5BB223F018035AB2FB79DB005BB246
:1050900013435BB2DBB2BB7400BFFB7C99B207F178
:1050A00012024FF47A73009301237869FCF7FCFA3B
:1050B0000346002BF1D1FB79032B1FD801A252F834
:1050C00023F000BFD5500008DF500008E950000869
:1050D000F3500008BB684FF062529A600FE0BB6863
:1050E0004FF064529A600AE0BB684FF066529A60D3
:1050F00005E0BB684FF068529A6000E000BF0023F3
:1051000018461837BD4680BD80B588B002AFF8603C
:10511000B9601346FB71FB687B61BB681B78FB744D
:105120001B237B7400BFFB7C99B207F111024FF483
:105130007A73009301237869FCF7B6FA0346002BD3
:10514000F1D100BFFB7C99B207F112024FF47A73E0
:10515000009301237869FCF7A7FB0346002BF1D1EC
:10516000BB7C5BB223F018035AB2FB79DB005BB265
:1051700013435BB2DBB2BB7400BFFB7C99B207F197
:1051800012024FF47A73009301237869FCF78CFACA
:105190000346002BF1D1FB79032B1BD801A252F857
:1051A00023F000BFB5510008BD510008C5510008EB
:1051B000CD510008BB680A4A5A600CE0BB68094A36
:1051C0005A6008E0BB68084A5A6004E0BB68074AB6
:1051D0005A6000E000BF002318461837BD4680BD66
:1051E0002D23FA3B2D237A3C90C1F93C90C1793DA7
:1051F00080B588B002AF786039603B23FB727B6872
:105200007B613B681B78FB7400BFFB7C99B207F1A4
:105210000B024FF47A73009301237869FCF744FA88
:105220000346002BF1D100BFFB7C99B207F10C02C1
:105230004FF47A73009306237869FCF735FB034635
:10524000002BF1D13B7B1B021AB27B7B1BB21343B9
:105250001AB23B689A81BB7B1B021AB2FB7B1BB262
:1052600013431AB23B68DA813B7C1B021AB27B7C87
:105270001BB213431AB23B681A8200231846183730
:10528000BD4680BD80B588B002AF786039604323E9
:10529000FB727B687B613B681B78FB7400BFFB7C07
:1052A00099B207F10B024FF47A73009301237869E6
:1052B000FCF7FAF90346002BF1D100BFFB7C99B251
:1052C00007F10C024FF47A73009306237869FCF718
:1052D000EBFA0346002BF1D13B7B1B021AB27B7B1E
:1052E0001BB213431AB23B685A82BB7B1B021AB231
:1052F000FB7B1BB213431AB23B689A823B7C1B02B6
:105300001AB27B7C1BB213431AB23B68DA820023C9
:1053100018461837BD4680BD80B588B002AF7860AA
:1053200039604123FB727B687B613B681B78FB74AF
:1053300000BFFB7C99B207F10B024FF47A73009324
:1053400001237869FCF7B0F90346002BF1D100BFC7
:10535000FB7C99B207F10C024FF47A73009302239D
:105360007869FCF7A1FA0346002BF1D13B7B1B02C5
:105370001AB27B7B1BB213433B82B7F9103007EEA6
:10538000903AB8EEE77ADFED086AC7EE267A9FED2D
:10539000077A77EE877A3B68C3ED067A00231846D2
:1053A0001837BD4680BD00BF0000AA43B81E124298
:1053B00080B483B000AF03463960FB7197F90730C2
:1053C000002B0BDA3B68DAB20C49FB7903F00F03D0
:1053D000043B1201D2B20B441A7609E03B68DAB200
:1053E000074997F907301201D2B20B4483F8002322
:1053F00000BF0C37BD465DF8047B704700ED00E050
:1054000000E100E080B582B000AF78607B68013BCE
:10541000B3F1807F01D301230FE00A4A7B68013B8F
:1054200053600F214FF0FF30FFF7C2FF054B002202
:105430009A60044B07221A60002318460837BD46BD
:1054400080BD00BF10E000E00FB480B5C2B000AF77
:1054500007F58A723B1D1A603B1D07F108001B68A7
:10546000D7F810214FF4807101F0E6FA07F1080334
:105470001846FAF7ADFE03469AB207F108014FF05D
:10548000FF330548FFF70FFA00BF07F58477BD46E5
:10549000BDE8804004B070479001002080B400AFA8
:1054A000034B1B681846BD465DF8047B704700BF80
:1054B0008C0000202DE9F041ADF5107D08AFC54806
:1054C000FFF7C2FF00F0A0FEC7F81002D7F81032B5
:1054D000002B05DAD7F81012BF48FFF7B5FF73E1CC
:1054E000BE48FFF7B1FF07F50273184600F078FFDA
:1054F000C7F81002D7F81032002B05DAD7F81012CF
:10550000B748FFF7A1FF5FE1D7F80812D7F80832D4
:10551000B44AA2FB0323DB091A46B348FFF794FF02
:105520004AF6CD33C7F80C32D7F80C32C7F81C3224
:10553000D7F81C3207F10800AC4A4FF4007101F0B3
:105540001BFA07F108031946D7F81C0201F01EF8F0
:10555000C7F81002D7F81032002B05DAD7F810126E
:10556000A348FFF771FF2FE1D7F81C12A148FFF7FE
:105570006BFF07F108034FF400720021184601F099
:10558000F3F907F108031946D7F81C0200F098FF59
:10559000C7F81002D7F81032002B05DAD7F810122E
:1055A0009548FFF751FF0FE107F108031B789C4670
:1055B00007F108035B789E4607F108039B781A46BB
:1055C00007F10803DB78194607F108031B79184631
:1055D00007F108035B791C4607F108039B791D4618
:1055E00007F10803DB791E4607F108031B7A7B608D
:1055F00007F108035B7A07937B6806930596049589
:10560000039402900191009273466246D7F81C12EF
:105610007A48FFF719FFD7F80C320133C7F81C326C
:10562000D7F81C0201F0CAF8C7F81002D7F81032F8
:10563000002B05DAD7F810127148FFF705FFC3E019
:10564000D7F81C126F48FFF7FFFE0023C7F8183287
:1056500028E0D7F81C3207F10800644A4FF40071C3
:1056600001F08AF907F10803184601F0E5F8C7F8D8
:105670001002D7F81032002B05DAD7F81012624862
:10568000FFF7E2FEA0E0D7F81C126048FFF7DCFE4F
:10569000D7F81C320133C7F81C32D7F8183201335F
:1056A000C7F81832D7F81832022BD2DD01F00CF906
:1056B000C7F81002D7F81032002B05DAD7F810120D
:1056C0005348FFF7C1FE7FE05248FFF7BDFED7F811
:1056D0000C320133C7F81C32D7F81C0200F0CEFFA1
:1056E000C7F81002D7F81032002B05DAD7F81012DD
:1056F0004948FFF7A9FE67E0D7F81C124748FFF7B3
:10570000A3FE0023C7F8143249E007F10803184646
:1057100000F0F2FFC7F81002D7F81032002B05DABC
:10572000D7F810123E48FFF78FFE4DE007F108034F
:105730001B789C4607F108035B789E4607F1080337
:105740009B78984607F10803DB781A4607F10803AF
:105750001B79194607F108035B79184607F108031E
:105760009B791C4607F10803DB791D4607F1080306
:105770001B7A1E4607F108035B7A0693059604958B
:105780000394029001910092434672466146254877
:10579000FFF75AFED7F814320133C7F81432D7F89E
:1057A0001432022BB1DD00F0DBFFC7F81002D7F88E
:1057B0001032002B05DAD7F810121B48FFF744FE11
:1057C00002E01A48FFF740FE07F50877BD46BDE83E
:1057D000F08100BF38720008447200086872000847
:1057E00080720008D34D6210B0720008EC7200089D
:1057F000F4720008247300085473000884730008CE
:10580000D4730008FC730008247400084C7400086A
:1058100078740008A0740008BC740008E4740008E0
:105820000C7500083475000870750008987500083C
:10583000B0B590B002AFFFF731FE7863796B67487F
:10584000FFF702FE664B07F114040FCB07C4238059
:1058500002341B0C2370634B3C461D460FCD0FC416
:105860002B682370FBF794FB00F0E2F800F018FAC5
:1058700000F030F900F06EF900F0E2F900F0A8F95C
:105880005948FEF7DCFE594B1B68594AA2FB03231B
:105890009B091846FFF7B6FD5648FAF7A9FE564B86
:1058A00076229A84544B554A9A6206E05448FFF790
:1058B000CBFD4FF4FA60FBF7D1FB4E494E48FBF7A6
:1058C00012F8034683F00103DBB2002BEED14A4B02
:1058D00093F83230602B0CBF0123002387F833305C
:1058E00097F83330002B02D04648FFF7ADFDFFF7A5
:1058F000E1FDFFF7D3FD034619464348FFF7A4FD3A
:10590000002300930023002240493C48FFF7F3FAAC
:10591000034687F8323097F83230002B08D107F170
:1059200014014FF47A730F223948FEF7BCFF06E0EA
:1059300039464FF47A7311223548FEF7B4FF3349E4
:105940002E48FFF7E9FC31492C48FFF79BFC2F4B11
:105950005B8A3B862D4B9B8AFB852C4BDB8ABB8568
:10596000B7F93010B7F92E20B7F92C302948FFF7D6
:105970006BFD26492148FFF73BFC244B9B897B8527
:10598000224BDB893B85214B1B8AFB84B7F92A100C
:10599000B7F92820B7F926301F48FFF755FD02E078
:1059A0001E48FFF751FD1E4B1E4A1F491248FBF7C8
:1059B00089FA034683F00103DBB2002BF0D197F89C
:1059C0003330002B95D0174B1968174B1A68144BBE
:1059D0001B681648FFF738FD8BE700BFB475000859
:1059E000AC760008BC760008000200200800002009
:1059F000D34D6210880100205C010020A00000202F
:105A0000C8750008EC750008047600084002002004
:105A1000900100200C7600082C7600084C760008D7
:105A2000F4000020F0000020EC0000207476000854
:105A300080B596B000AF07F1300328220021184648
:105A400000F092FF07F11C0300221A605A609A606E
:105A5000DA601A613B1D00221A605A609A60DA60AF
:105A60001A615A6102233B6301233B6410237B6468
:105A70000023FB6407F130031846FCF76DFE034674
:105A8000002B01D000F04AF90F23FB6100233B6299
:105A900000237B620023BB620023FB6207F11C032F
:105AA00000211846FDF746FD0346002B01D000F00B
:105AB00035F920237B6000233B613B1D1846FDF731
:105AC0006FFF0346002B01D000F028F900BF5837C4
:105AD000BD4680BD80B500AF1B4B1C4A1A601A4BF7
